
/home/zeeshan/fyp/azadi/tests/asm/output/add.merl:     file format elf32-littleriscv


Disassembly of section .text:

200000a0 <_stext>:
200000a0:	f8010113          	addi	sp,sp,-128
200000a4:	00000013          	nop
200000a8:	00112223          	sw	ra,4(sp)
200000ac:	00212423          	sw	sp,8(sp)
200000b0:	00312623          	sw	gp,12(sp)
200000b4:	00412823          	sw	tp,16(sp)
200000b8:	00512a23          	sw	t0,20(sp)
200000bc:	00612c23          	sw	t1,24(sp)
200000c0:	00712e23          	sw	t2,28(sp)
200000c4:	02812023          	sw	s0,32(sp)
200000c8:	02912223          	sw	s1,36(sp)
200000cc:	02a12423          	sw	a0,40(sp)
200000d0:	02b12623          	sw	a1,44(sp)
200000d4:	02c12823          	sw	a2,48(sp)
200000d8:	02d12a23          	sw	a3,52(sp)
200000dc:	02e12c23          	sw	a4,56(sp)
200000e0:	02f12e23          	sw	a5,60(sp)
200000e4:	05012023          	sw	a6,64(sp)
200000e8:	05112223          	sw	a7,68(sp)
200000ec:	05212423          	sw	s2,72(sp)
200000f0:	05312623          	sw	s3,76(sp)
200000f4:	05412823          	sw	s4,80(sp)
200000f8:	05512a23          	sw	s5,84(sp)
200000fc:	05612c23          	sw	s6,88(sp)
20000100:	05712e23          	sw	s7,92(sp)
20000104:	07812023          	sw	s8,96(sp)
20000108:	07912223          	sw	s9,100(sp)
2000010c:	07a12423          	sw	s10,104(sp)
20000110:	07b12623          	sw	s11,108(sp)
20000114:	07c12823          	sw	t3,112(sp)
20000118:	07d12a23          	sw	t4,116(sp)
2000011c:	07e12c23          	sw	t5,120(sp)
20000120:	07f12e23          	sw	t6,124(sp)
20000124:	34202573          	csrr	a0,mcause
20000128:	341025f3          	csrr	a1,mepc
2000012c:	00010613          	mv	a2,sp
20000130:	634000ef          	jal	ra,20000764 <handle_trap>
20000134:	34151073          	csrw	mepc,a0
20000138:	00412083          	lw	ra,4(sp)
2000013c:	00812103          	lw	sp,8(sp)
20000140:	00c12183          	lw	gp,12(sp)
20000144:	01012203          	lw	tp,16(sp)
20000148:	01412283          	lw	t0,20(sp)
2000014c:	01812303          	lw	t1,24(sp)
20000150:	01c12383          	lw	t2,28(sp)
20000154:	02012403          	lw	s0,32(sp)
20000158:	02412483          	lw	s1,36(sp)
2000015c:	02812503          	lw	a0,40(sp)
20000160:	02c12583          	lw	a1,44(sp)
20000164:	03012603          	lw	a2,48(sp)
20000168:	03412683          	lw	a3,52(sp)
2000016c:	03812703          	lw	a4,56(sp)
20000170:	03c12783          	lw	a5,60(sp)
20000174:	04012803          	lw	a6,64(sp)
20000178:	04412883          	lw	a7,68(sp)
2000017c:	04812903          	lw	s2,72(sp)
20000180:	04c12983          	lw	s3,76(sp)
20000184:	05012a03          	lw	s4,80(sp)
20000188:	05412a83          	lw	s5,84(sp)
2000018c:	05812b03          	lw	s6,88(sp)
20000190:	05c12b83          	lw	s7,92(sp)
20000194:	06012c03          	lw	s8,96(sp)
20000198:	06412c83          	lw	s9,100(sp)
2000019c:	06812d03          	lw	s10,104(sp)
200001a0:	06c12d83          	lw	s11,108(sp)
200001a4:	07012e03          	lw	t3,112(sp)
200001a8:	07412e83          	lw	t4,116(sp)
200001ac:	07812f03          	lw	t5,120(sp)
200001b0:	07c12f83          	lw	t6,124(sp)
200001b4:	08010113          	addi	sp,sp,128
200001b8:	30200073          	mret
200001bc:	0000                	unimp
200001be:	0000                	unimp

200001c0 <main>:
200001c0:	fe010113          	addi	sp,sp,-32
200001c4:	00112e23          	sw	ra,28(sp)
200001c8:	00812c23          	sw	s0,24(sp)
200001cc:	02010413          	addi	s0,sp,32
200001d0:	00000797          	auipc	a5,0x0
200001d4:	6d478793          	addi	a5,a5,1748 # 200008a4 <_etext+0x2c>
200001d8:	0007a787          	flw	fa5,0(a5)
200001dc:	fef42627          	fsw	fa5,-20(s0)
200001e0:	00000797          	auipc	a5,0x0
200001e4:	6c878793          	addi	a5,a5,1736 # 200008a8 <_etext+0x30>
200001e8:	0007a787          	flw	fa5,0(a5)
200001ec:	fef42427          	fsw	fa5,-24(s0)
200001f0:	fec42787          	flw	fa5,-20(s0)
200001f4:	c00797d3          	fcvt.w.s	a5,fa5,rtz
200001f8:	fe842787          	flw	fa5,-24(s0)
200001fc:	c0079753          	fcvt.w.s	a4,fa5,rtz
20000200:	00070593          	mv	a1,a4
20000204:	00078513          	mv	a0,a5
20000208:	028000ef          	jal	ra,20000230 <sum>
2000020c:	00050793          	mv	a5,a0
20000210:	d007f7d3          	fcvt.s.w	fa5,a5
20000214:	fef42227          	fsw	fa5,-28(s0)
20000218:	00000793          	li	a5,0
2000021c:	00078513          	mv	a0,a5
20000220:	01c12083          	lw	ra,28(sp)
20000224:	01812403          	lw	s0,24(sp)
20000228:	02010113          	addi	sp,sp,32
2000022c:	00008067          	ret

20000230 <sum>:
20000230:	fe010113          	addi	sp,sp,-32
20000234:	00812e23          	sw	s0,28(sp)
20000238:	02010413          	addi	s0,sp,32
2000023c:	fea42623          	sw	a0,-20(s0)
20000240:	feb42423          	sw	a1,-24(s0)
20000244:	fec42703          	lw	a4,-20(s0)
20000248:	fe842783          	lw	a5,-24(s0)
2000024c:	00f707b3          	add	a5,a4,a5
20000250:	00078513          	mv	a0,a5
20000254:	01c12403          	lw	s0,28(sp)
20000258:	02010113          	addi	sp,sp,32
2000025c:	00008067          	ret

20000260 <read_word>:
20000260:	fe010113          	addi	sp,sp,-32
20000264:	00812e23          	sw	s0,28(sp)
20000268:	02010413          	addi	s0,sp,32
2000026c:	fea42623          	sw	a0,-20(s0)
20000270:	fec42783          	lw	a5,-20(s0)
20000274:	0007a783          	lw	a5,0(a5)
20000278:	00078513          	mv	a0,a5
2000027c:	01c12403          	lw	s0,28(sp)
20000280:	02010113          	addi	sp,sp,32
20000284:	00008067          	ret

20000288 <write_word>:
20000288:	fe010113          	addi	sp,sp,-32
2000028c:	00812e23          	sw	s0,28(sp)
20000290:	02010413          	addi	s0,sp,32
20000294:	fea42623          	sw	a0,-20(s0)
20000298:	feb42423          	sw	a1,-24(s0)
2000029c:	fec42783          	lw	a5,-20(s0)
200002a0:	fe842703          	lw	a4,-24(s0)
200002a4:	00e7a023          	sw	a4,0(a5)
200002a8:	00000013          	nop
200002ac:	01c12403          	lw	s0,28(sp)
200002b0:	02010113          	addi	sp,sp,32
200002b4:	00008067          	ret

200002b8 <interrupt_complete>:
200002b8:	fd010113          	addi	sp,sp,-48
200002bc:	02812623          	sw	s0,44(sp)
200002c0:	03010413          	addi	s0,sp,48
200002c4:	fca42e23          	sw	a0,-36(s0)
200002c8:	400607b7          	lui	a5,0x40060
200002cc:	01078793          	addi	a5,a5,16 # 40060010 <_etext+0x2005f798>
200002d0:	fef42623          	sw	a5,-20(s0)
200002d4:	fec42783          	lw	a5,-20(s0)
200002d8:	fdc42703          	lw	a4,-36(s0)
200002dc:	00e7a023          	sw	a4,0(a5)
200002e0:	05018713          	addi	a4,gp,80 # 10000050 <hart0_interrupt_matrix>
200002e4:	fdc42783          	lw	a5,-36(s0)
200002e8:	00479793          	slli	a5,a5,0x4
200002ec:	00f707b3          	add	a5,a4,a5
200002f0:	00200713          	li	a4,2
200002f4:	00e7a423          	sw	a4,8(a5)
200002f8:	05018713          	addi	a4,gp,80 # 10000050 <hart0_interrupt_matrix>
200002fc:	fdc42783          	lw	a5,-36(s0)
20000300:	00479793          	slli	a5,a5,0x4
20000304:	00f707b3          	add	a5,a4,a5
20000308:	00c7a783          	lw	a5,12(a5)
2000030c:	00178713          	addi	a4,a5,1
20000310:	05018693          	addi	a3,gp,80 # 10000050 <hart0_interrupt_matrix>
20000314:	fdc42783          	lw	a5,-36(s0)
20000318:	00479793          	slli	a5,a5,0x4
2000031c:	00f687b3          	add	a5,a3,a5
20000320:	00e7a623          	sw	a4,12(a5)
20000324:	00000013          	nop
20000328:	02c12403          	lw	s0,44(sp)
2000032c:	03010113          	addi	sp,sp,48
20000330:	00008067          	ret

20000334 <configure_interrupt_pin>:
20000334:	fe010113          	addi	sp,sp,-32
20000338:	00812e23          	sw	s0,28(sp)
2000033c:	02010413          	addi	s0,sp,32
20000340:	fea42623          	sw	a0,-20(s0)
20000344:	00000013          	nop
20000348:	01c12403          	lw	s0,28(sp)
2000034c:	02010113          	addi	sp,sp,32
20000350:	00008067          	ret

20000354 <interrupt_claim_request>:
20000354:	fe010113          	addi	sp,sp,-32
20000358:	00812e23          	sw	s0,28(sp)
2000035c:	02010413          	addi	s0,sp,32
20000360:	fe042623          	sw	zero,-20(s0)
20000364:	400607b7          	lui	a5,0x40060
20000368:	01078793          	addi	a5,a5,16 # 40060010 <_etext+0x2005f798>
2000036c:	fef42623          	sw	a5,-20(s0)
20000370:	fec42783          	lw	a5,-20(s0)
20000374:	0007a783          	lw	a5,0(a5)
20000378:	fef42423          	sw	a5,-24(s0)
2000037c:	fe842783          	lw	a5,-24(s0)
20000380:	00078513          	mv	a0,a5
20000384:	01c12403          	lw	s0,28(sp)
20000388:	02010113          	addi	sp,sp,32
2000038c:	00008067          	ret

20000390 <mach_plic_handler>:
20000390:	fd010113          	addi	sp,sp,-48
20000394:	02112623          	sw	ra,44(sp)
20000398:	02812423          	sw	s0,40(sp)
2000039c:	03010413          	addi	s0,sp,48
200003a0:	fca42e23          	sw	a0,-36(s0)
200003a4:	fcb42c23          	sw	a1,-40(s0)
200003a8:	fadff0ef          	jal	ra,20000354 <interrupt_claim_request>
200003ac:	fea42623          	sw	a0,-20(s0)
200003b0:	05018713          	addi	a4,gp,80 # 10000050 <hart0_interrupt_matrix>
200003b4:	fec42783          	lw	a5,-20(s0)
200003b8:	00479793          	slli	a5,a5,0x4
200003bc:	00f707b3          	add	a5,a4,a5
200003c0:	00100713          	li	a4,1
200003c4:	00e7a423          	sw	a4,8(a5)
200003c8:	00018713          	mv	a4,gp
200003cc:	fec42783          	lw	a5,-20(s0)
200003d0:	00279793          	slli	a5,a5,0x2
200003d4:	00f707b3          	add	a5,a4,a5
200003d8:	0007a783          	lw	a5,0(a5)
200003dc:	fec42503          	lw	a0,-20(s0)
200003e0:	000780e7          	jalr	a5
200003e4:	fec42503          	lw	a0,-20(s0)
200003e8:	ed1ff0ef          	jal	ra,200002b8 <interrupt_complete>
200003ec:	00000013          	nop
200003f0:	02c12083          	lw	ra,44(sp)
200003f4:	02812403          	lw	s0,40(sp)
200003f8:	03010113          	addi	sp,sp,48
200003fc:	00008067          	ret

20000400 <interrupt_enable>:
20000400:	fd010113          	addi	sp,sp,-48
20000404:	02812623          	sw	s0,44(sp)
20000408:	03010413          	addi	s0,sp,48
2000040c:	fca42e23          	sw	a0,-36(s0)
20000410:	fe0407a3          	sb	zero,-17(s0)
20000414:	fdc42783          	lw	a5,-36(s0)
20000418:	0037d713          	srli	a4,a5,0x3
2000041c:	400527b7          	lui	a5,0x40052
20000420:	00f707b3          	add	a5,a4,a5
20000424:	fef42423          	sw	a5,-24(s0)
20000428:	fe842783          	lw	a5,-24(s0)
2000042c:	0007c783          	lbu	a5,0(a5) # 40052000 <_etext+0x20051788>
20000430:	fef407a3          	sb	a5,-17(s0)
20000434:	fdc42783          	lw	a5,-36(s0)
20000438:	0077f793          	andi	a5,a5,7
2000043c:	00100713          	li	a4,1
20000440:	00f717b3          	sll	a5,a4,a5
20000444:	01879713          	slli	a4,a5,0x18
20000448:	41875713          	srai	a4,a4,0x18
2000044c:	fef40783          	lb	a5,-17(s0)
20000450:	00f767b3          	or	a5,a4,a5
20000454:	01879793          	slli	a5,a5,0x18
20000458:	4187d793          	srai	a5,a5,0x18
2000045c:	fef403a3          	sb	a5,-25(s0)
20000460:	fe842783          	lw	a5,-24(s0)
20000464:	fe744703          	lbu	a4,-25(s0)
20000468:	00e78023          	sb	a4,0(a5)
2000046c:	00000013          	nop
20000470:	02c12403          	lw	s0,44(sp)
20000474:	03010113          	addi	sp,sp,48
20000478:	00008067          	ret

2000047c <interrupt_disable>:
2000047c:	fd010113          	addi	sp,sp,-48
20000480:	02812623          	sw	s0,44(sp)
20000484:	03010413          	addi	s0,sp,48
20000488:	fca42e23          	sw	a0,-36(s0)
2000048c:	fe042623          	sw	zero,-20(s0)
20000490:	fe0405a3          	sb	zero,-21(s0)
20000494:	fdc42783          	lw	a5,-36(s0)
20000498:	0037d713          	srli	a4,a5,0x3
2000049c:	400527b7          	lui	a5,0x40052
200004a0:	00f707b3          	add	a5,a4,a5
200004a4:	fef42623          	sw	a5,-20(s0)
200004a8:	fec42783          	lw	a5,-20(s0)
200004ac:	0007c783          	lbu	a5,0(a5) # 40052000 <_etext+0x20051788>
200004b0:	fef405a3          	sb	a5,-21(s0)
200004b4:	fdc42783          	lw	a5,-36(s0)
200004b8:	0077f793          	andi	a5,a5,7
200004bc:	00100713          	li	a4,1
200004c0:	00f717b3          	sll	a5,a4,a5
200004c4:	01879793          	slli	a5,a5,0x18
200004c8:	4187d793          	srai	a5,a5,0x18
200004cc:	fff7c793          	not	a5,a5
200004d0:	01879713          	slli	a4,a5,0x18
200004d4:	41875713          	srai	a4,a4,0x18
200004d8:	feb40783          	lb	a5,-21(s0)
200004dc:	00f777b3          	and	a5,a4,a5
200004e0:	01879793          	slli	a5,a5,0x18
200004e4:	4187d793          	srai	a5,a5,0x18
200004e8:	fef40523          	sb	a5,-22(s0)
200004ec:	fec42783          	lw	a5,-20(s0)
200004f0:	fea44703          	lbu	a4,-22(s0)
200004f4:	00e78023          	sb	a4,0(a5)
200004f8:	05018713          	addi	a4,gp,80 # 10000050 <hart0_interrupt_matrix>
200004fc:	fdc42783          	lw	a5,-36(s0)
20000500:	00479793          	slli	a5,a5,0x4
20000504:	00f707b3          	add	a5,a4,a5
20000508:	0007a423          	sw	zero,8(a5)
2000050c:	00000013          	nop
20000510:	02c12403          	lw	s0,44(sp)
20000514:	03010113          	addi	sp,sp,48
20000518:	00008067          	ret

2000051c <set_interrupt_threshold>:
2000051c:	fd010113          	addi	sp,sp,-48
20000520:	02812623          	sw	s0,44(sp)
20000524:	03010413          	addi	s0,sp,48
20000528:	fca42e23          	sw	a0,-36(s0)
2000052c:	fe042623          	sw	zero,-20(s0)
20000530:	400607b7          	lui	a5,0x40060
20000534:	fef42623          	sw	a5,-20(s0)
20000538:	fec42783          	lw	a5,-20(s0)
2000053c:	fdc42703          	lw	a4,-36(s0)
20000540:	00e7a023          	sw	a4,0(a5) # 40060000 <_etext+0x2005f788>
20000544:	00000013          	nop
20000548:	02c12403          	lw	s0,44(sp)
2000054c:	03010113          	addi	sp,sp,48
20000550:	00008067          	ret

20000554 <set_interrupt_priority>:
20000554:	fd010113          	addi	sp,sp,-48
20000558:	02812623          	sw	s0,44(sp)
2000055c:	03010413          	addi	s0,sp,48
20000560:	fca42e23          	sw	a0,-36(s0)
20000564:	fcb42c23          	sw	a1,-40(s0)
20000568:	fd842783          	lw	a5,-40(s0)
2000056c:	00279713          	slli	a4,a5,0x2
20000570:	400507b7          	lui	a5,0x40050
20000574:	00f707b3          	add	a5,a4,a5
20000578:	fef42623          	sw	a5,-20(s0)
2000057c:	fec42783          	lw	a5,-20(s0)
20000580:	fdc42703          	lw	a4,-36(s0)
20000584:	00e7a023          	sw	a4,0(a5) # 40050000 <_etext+0x2004f788>
20000588:	00000013          	nop
2000058c:	02c12403          	lw	s0,44(sp)
20000590:	03010113          	addi	sp,sp,48
20000594:	00008067          	ret

20000598 <isr_default>:
20000598:	fe010113          	addi	sp,sp,-32
2000059c:	00812e23          	sw	s0,28(sp)
200005a0:	02010413          	addi	s0,sp,32
200005a4:	fea42623          	sw	a0,-20(s0)
200005a8:	00000013          	nop
200005ac:	01c12403          	lw	s0,28(sp)
200005b0:	02010113          	addi	sp,sp,32
200005b4:	00008067          	ret

200005b8 <plic_init>:
200005b8:	fe010113          	addi	sp,sp,-32
200005bc:	00112e23          	sw	ra,28(sp)
200005c0:	00812c23          	sw	s0,24(sp)
200005c4:	02010413          	addi	s0,sp,32
200005c8:	fe042623          	sw	zero,-20(s0)
200005cc:	19418793          	addi	a5,gp,404 # 10000194 <mcause_interrupt_table>
200005d0:	00000717          	auipc	a4,0x0
200005d4:	dc070713          	addi	a4,a4,-576 # 20000390 <mach_plic_handler>
200005d8:	00e7a023          	sw	a4,0(a5)
200005dc:	05018793          	addi	a5,gp,80 # 10000050 <hart0_interrupt_matrix>
200005e0:	0007a423          	sw	zero,8(a5)
200005e4:	05018793          	addi	a5,gp,80 # 10000050 <hart0_interrupt_matrix>
200005e8:	0007a023          	sw	zero,0(a5)
200005ec:	05018793          	addi	a5,gp,80 # 10000050 <hart0_interrupt_matrix>
200005f0:	0007a223          	sw	zero,4(a5)
200005f4:	05018793          	addi	a5,gp,80 # 10000050 <hart0_interrupt_matrix>
200005f8:	0007a623          	sw	zero,12(a5)
200005fc:	00100793          	li	a5,1
20000600:	fef42623          	sw	a5,-20(s0)
20000604:	0980006f          	j	2000069c <plic_init+0xe4>
20000608:	05018713          	addi	a4,gp,80 # 10000050 <hart0_interrupt_matrix>
2000060c:	fec42783          	lw	a5,-20(s0)
20000610:	00479793          	slli	a5,a5,0x4
20000614:	00f707b3          	add	a5,a4,a5
20000618:	0007a423          	sw	zero,8(a5)
2000061c:	05018713          	addi	a4,gp,80 # 10000050 <hart0_interrupt_matrix>
20000620:	fec42783          	lw	a5,-20(s0)
20000624:	00479793          	slli	a5,a5,0x4
20000628:	00f707b3          	add	a5,a4,a5
2000062c:	fec42703          	lw	a4,-20(s0)
20000630:	00e7a023          	sw	a4,0(a5)
20000634:	05018713          	addi	a4,gp,80 # 10000050 <hart0_interrupt_matrix>
20000638:	fec42783          	lw	a5,-20(s0)
2000063c:	00479793          	slli	a5,a5,0x4
20000640:	00f707b3          	add	a5,a4,a5
20000644:	00200713          	li	a4,2
20000648:	00e7a223          	sw	a4,4(a5)
2000064c:	05018713          	addi	a4,gp,80 # 10000050 <hart0_interrupt_matrix>
20000650:	fec42783          	lw	a5,-20(s0)
20000654:	00479793          	slli	a5,a5,0x4
20000658:	00f707b3          	add	a5,a4,a5
2000065c:	0007a623          	sw	zero,12(a5)
20000660:	fec42503          	lw	a0,-20(s0)
20000664:	e19ff0ef          	jal	ra,2000047c <interrupt_disable>
20000668:	00018713          	mv	a4,gp
2000066c:	fec42783          	lw	a5,-20(s0)
20000670:	00279793          	slli	a5,a5,0x2
20000674:	00f707b3          	add	a5,a4,a5
20000678:	00000717          	auipc	a4,0x0
2000067c:	f2070713          	addi	a4,a4,-224 # 20000598 <isr_default>
20000680:	00e7a023          	sw	a4,0(a5)
20000684:	fec42583          	lw	a1,-20(s0)
20000688:	00200513          	li	a0,2
2000068c:	ec9ff0ef          	jal	ra,20000554 <set_interrupt_priority>
20000690:	fec42783          	lw	a5,-20(s0)
20000694:	00178793          	addi	a5,a5,1
20000698:	fef42623          	sw	a5,-20(s0)
2000069c:	fec42703          	lw	a4,-20(s0)
200006a0:	01300793          	li	a5,19
200006a4:	f6e7f2e3          	bgeu	a5,a4,20000608 <plic_init+0x50>
200006a8:	00100513          	li	a0,1
200006ac:	e71ff0ef          	jal	ra,2000051c <set_interrupt_threshold>
200006b0:	00000013          	nop
200006b4:	01c12083          	lw	ra,28(sp)
200006b8:	01812403          	lw	s0,24(sp)
200006bc:	02010113          	addi	sp,sp,32
200006c0:	00008067          	ret

200006c4 <configure_interrupt>:
200006c4:	fe010113          	addi	sp,sp,-32
200006c8:	00112e23          	sw	ra,28(sp)
200006cc:	00812c23          	sw	s0,24(sp)
200006d0:	02010413          	addi	s0,sp,32
200006d4:	fea42623          	sw	a0,-20(s0)
200006d8:	fec42703          	lw	a4,-20(s0)
200006dc:	00600793          	li	a5,6
200006e0:	00e7fc63          	bgeu	a5,a4,200006f8 <configure_interrupt+0x34>
200006e4:	fec42703          	lw	a4,-20(s0)
200006e8:	01500793          	li	a5,21
200006ec:	00e7e663          	bltu	a5,a4,200006f8 <configure_interrupt+0x34>
200006f0:	fec42503          	lw	a0,-20(s0)
200006f4:	c41ff0ef          	jal	ra,20000334 <configure_interrupt_pin>
200006f8:	fec42503          	lw	a0,-20(s0)
200006fc:	d05ff0ef          	jal	ra,20000400 <interrupt_enable>
20000700:	00000013          	nop
20000704:	01c12083          	lw	ra,28(sp)
20000708:	01812403          	lw	s0,24(sp)
2000070c:	02010113          	addi	sp,sp,32
20000710:	00008067          	ret

20000714 <extract_ie_code>:
20000714:	fd010113          	addi	sp,sp,-48
20000718:	02812623          	sw	s0,44(sp)
2000071c:	03010413          	addi	s0,sp,48
20000720:	fca42e23          	sw	a0,-36(s0)
20000724:	fdc42703          	lw	a4,-36(s0)
20000728:	800007b7          	lui	a5,0x80000
2000072c:	fff7c793          	not	a5,a5
20000730:	00f777b3          	and	a5,a4,a5
20000734:	fef42623          	sw	a5,-20(s0)
20000738:	fec42783          	lw	a5,-20(s0)
2000073c:	00078513          	mv	a0,a5
20000740:	02c12403          	lw	s0,44(sp)
20000744:	03010113          	addi	sp,sp,48
20000748:	00008067          	ret

2000074c <default_handler>:
2000074c:	fe010113          	addi	sp,sp,-32
20000750:	00812e23          	sw	s0,28(sp)
20000754:	02010413          	addi	s0,sp,32
20000758:	fea42623          	sw	a0,-20(s0)
2000075c:	feb42423          	sw	a1,-24(s0)
20000760:	0000006f          	j	20000760 <default_handler+0x14>

20000764 <handle_trap>:
20000764:	fd010113          	addi	sp,sp,-48
20000768:	02112623          	sw	ra,44(sp)
2000076c:	02812423          	sw	s0,40(sp)
20000770:	03010413          	addi	s0,sp,48
20000774:	fca42e23          	sw	a0,-36(s0)
20000778:	fcb42c23          	sw	a1,-40(s0)
2000077c:	fe042623          	sw	zero,-20(s0)
20000780:	fe042423          	sw	zero,-24(s0)
20000784:	01f00793          	li	a5,31
20000788:	fef42423          	sw	a5,-24(s0)
2000078c:	fe842783          	lw	a5,-24(s0)
20000790:	00100713          	li	a4,1
20000794:	00f717b3          	sll	a5,a4,a5
20000798:	00078713          	mv	a4,a5
2000079c:	fdc42783          	lw	a5,-36(s0)
200007a0:	00f777b3          	and	a5,a4,a5
200007a4:	02078a63          	beqz	a5,200007d8 <handle_trap+0x74>
200007a8:	fdc42503          	lw	a0,-36(s0)
200007ac:	f69ff0ef          	jal	ra,20000714 <extract_ie_code>
200007b0:	fea42623          	sw	a0,-20(s0)
200007b4:	19418713          	addi	a4,gp,404 # 10000194 <mcause_interrupt_table>
200007b8:	fec42783          	lw	a5,-20(s0)
200007bc:	00279793          	slli	a5,a5,0x2
200007c0:	00f707b3          	add	a5,a4,a5
200007c4:	0007a783          	lw	a5,0(a5) # 80000000 <_etext+0x5ffff788>
200007c8:	fd842583          	lw	a1,-40(s0)
200007cc:	fdc42503          	lw	a0,-36(s0)
200007d0:	000780e7          	jalr	a5
200007d4:	0240006f          	j	200007f8 <handle_trap+0x94>
200007d8:	19018713          	addi	a4,gp,400 # 10000190 <mcause_trap_table>
200007dc:	fdc42783          	lw	a5,-36(s0)
200007e0:	00279793          	slli	a5,a5,0x2
200007e4:	00f707b3          	add	a5,a4,a5
200007e8:	0007a783          	lw	a5,0(a5)
200007ec:	fd842583          	lw	a1,-40(s0)
200007f0:	fdc42503          	lw	a0,-36(s0)
200007f4:	000780e7          	jalr	a5
200007f8:	fd842783          	lw	a5,-40(s0)
200007fc:	00078513          	mv	a0,a5
20000800:	02c12083          	lw	ra,44(sp)
20000804:	02812403          	lw	s0,40(sp)
20000808:	03010113          	addi	sp,sp,48
2000080c:	00008067          	ret

20000810 <trap_init>:
20000810:	ff010113          	addi	sp,sp,-16
20000814:	00812623          	sw	s0,12(sp)
20000818:	01010413          	addi	s0,sp,16
2000081c:	19418793          	addi	a5,gp,404 # 10000194 <mcause_interrupt_table>
20000820:	00000717          	auipc	a4,0x0
20000824:	b7070713          	addi	a4,a4,-1168 # 20000390 <mach_plic_handler>
20000828:	00e7a023          	sw	a4,0(a5)
2000082c:	19018793          	addi	a5,gp,400 # 10000190 <mcause_trap_table>
20000830:	00000717          	auipc	a4,0x0
20000834:	f1c70713          	addi	a4,a4,-228 # 2000074c <default_handler>
20000838:	00e7a023          	sw	a4,0(a5)
2000083c:	00000013          	nop
20000840:	00c12403          	lw	s0,12(sp)
20000844:	01010113          	addi	sp,sp,16
20000848:	00008067          	ret

2000084c <init>:
2000084c:	ff010113          	addi	sp,sp,-16
20000850:	00112623          	sw	ra,12(sp)
20000854:	00812423          	sw	s0,8(sp)
20000858:	01010413          	addi	s0,sp,16
2000085c:	fb5ff0ef          	jal	ra,20000810 <trap_init>
20000860:	961ff0ef          	jal	ra,200001c0 <main>
20000864:	00000013          	nop
20000868:	00c12083          	lw	ra,12(sp)
2000086c:	00812403          	lw	s0,8(sp)
20000870:	01010113          	addi	sp,sp,16
20000874:	00008067          	ret
