
/home/waleed/Documents/updated-azadi/azadi-sdk/softwares/float_sub/output/float_sub.merl:     file format elf32-littleriscv


Disassembly of section .init:

20000000 <_start>:
20000000:	00000297          	auipc	t0,0x0
20000004:	02a28293          	addi	t0,t0,42 # 2000002a <trap_entry>
20000008:	30529073          	csrw	mtvec,t0
2000000c:	f0000197          	auipc	gp,0xf0000
20000010:	ff418193          	addi	gp,gp,-12 # 10000000 <mcause_trap_table>
20000014:	f0001117          	auipc	sp,0xf0001
20000018:	fec10113          	addi	sp,sp,-20 # 10001000 <__stack_top>
2000001c:	00010433          	add	s0,sp,zero
20000020:	05d0006f          	j	2000087c <main>

Disassembly of section .text:

20000028 <_stext>:
20000028:	0001                	nop

2000002a <trap_entry>:
2000002a:	7119                	addi	sp,sp,-128
2000002c:	00000013          	nop
20000030:	c206                	sw	ra,4(sp)
20000032:	c40a                	sw	sp,8(sp)
20000034:	c60e                	sw	gp,12(sp)
20000036:	c812                	sw	tp,16(sp)
20000038:	ca16                	sw	t0,20(sp)
2000003a:	cc1a                	sw	t1,24(sp)
2000003c:	ce1e                	sw	t2,28(sp)
2000003e:	d022                	sw	s0,32(sp)
20000040:	d226                	sw	s1,36(sp)
20000042:	d42a                	sw	a0,40(sp)
20000044:	d62e                	sw	a1,44(sp)
20000046:	d832                	sw	a2,48(sp)
20000048:	da36                	sw	a3,52(sp)
2000004a:	dc3a                	sw	a4,56(sp)
2000004c:	de3e                	sw	a5,60(sp)
2000004e:	c0c2                	sw	a6,64(sp)
20000050:	c2c6                	sw	a7,68(sp)
20000052:	c4ca                	sw	s2,72(sp)
20000054:	c6ce                	sw	s3,76(sp)
20000056:	c8d2                	sw	s4,80(sp)
20000058:	cad6                	sw	s5,84(sp)
2000005a:	ccda                	sw	s6,88(sp)
2000005c:	cede                	sw	s7,92(sp)
2000005e:	d0e2                	sw	s8,96(sp)
20000060:	d2e6                	sw	s9,100(sp)
20000062:	d4ea                	sw	s10,104(sp)
20000064:	d6ee                	sw	s11,108(sp)
20000066:	d8f2                	sw	t3,112(sp)
20000068:	daf6                	sw	t4,116(sp)
2000006a:	dcfa                	sw	t5,120(sp)
2000006c:	defe                	sw	t6,124(sp)
2000006e:	34202573          	csrr	a0,mcause
20000072:	341025f3          	csrr	a1,mepc
20000076:	860a                	mv	a2,sp
20000078:	2ea000ef          	jal	ra,20000362 <handle_trap>
2000007c:	34151073          	csrw	mepc,a0
20000080:	4092                	lw	ra,4(sp)
20000082:	4122                	lw	sp,8(sp)
20000084:	41b2                	lw	gp,12(sp)
20000086:	4242                	lw	tp,16(sp)
20000088:	42d2                	lw	t0,20(sp)
2000008a:	4362                	lw	t1,24(sp)
2000008c:	43f2                	lw	t2,28(sp)
2000008e:	5402                	lw	s0,32(sp)
20000090:	5492                	lw	s1,36(sp)
20000092:	5522                	lw	a0,40(sp)
20000094:	55b2                	lw	a1,44(sp)
20000096:	5642                	lw	a2,48(sp)
20000098:	56d2                	lw	a3,52(sp)
2000009a:	5762                	lw	a4,56(sp)
2000009c:	57f2                	lw	a5,60(sp)
2000009e:	4806                	lw	a6,64(sp)
200000a0:	4896                	lw	a7,68(sp)
200000a2:	4926                	lw	s2,72(sp)
200000a4:	49b6                	lw	s3,76(sp)
200000a6:	4a46                	lw	s4,80(sp)
200000a8:	4ad6                	lw	s5,84(sp)
200000aa:	4b66                	lw	s6,88(sp)
200000ac:	4bf6                	lw	s7,92(sp)
200000ae:	5c06                	lw	s8,96(sp)
200000b0:	5c96                	lw	s9,100(sp)
200000b2:	5d26                	lw	s10,104(sp)
200000b4:	5db6                	lw	s11,108(sp)
200000b6:	5e46                	lw	t3,112(sp)
200000b8:	5ed6                	lw	t4,116(sp)
200000ba:	5f66                	lw	t5,120(sp)
200000bc:	5ff6                	lw	t6,124(sp)
200000be:	6109                	addi	sp,sp,128
200000c0:	30200073          	mret

200000c4 <mach_timer_handler>:
200000c4:	1101                	addi	sp,sp,-32
200000c6:	ce22                	sw	s0,28(sp)
200000c8:	1000                	addi	s0,sp,32
200000ca:	fea42623          	sw	a0,-20(s0)
200000ce:	feb42423          	sw	a1,-24(s0)
200000d2:	40000437          	lui	s0,0x40000
200000d6:	fff00313          	li	t1,-1
200000da:	4385                	li	t2,1
200000dc:	10642623          	sw	t1,268(s0) # 4000010c <_etext+0x1ffff806>
200000e0:	10642823          	sw	t1,272(s0)
200000e4:	10042223          	sw	zero,260(s0)
200000e8:	10042423          	sw	zero,264(s0)
200000ec:	10b42023          	sw	a1,256(s0)
200000f0:	10042a23          	sw	zero,276(s0)
200000f4:	10742c23          	sw	t2,280(s0)
200000f8:	00042023          	sw	zero,0(s0)
200000fc:	30029073          	csrw	mstatus,t0
20000100:	30429073          	csrw	mie,t0
20000104:	0001                	nop
20000106:	4472                	lw	s0,28(sp)
20000108:	6105                	addi	sp,sp,32
2000010a:	8082                	ret

2000010c <delay>:
2000010c:	7179                	addi	sp,sp,-48
2000010e:	d622                	sw	s0,44(sp)
20000110:	1800                	addi	s0,sp,48
20000112:	fca42e23          	sw	a0,-36(s0)
20000116:	400007b7          	lui	a5,0x40000
2000011a:	10c78793          	addi	a5,a5,268 # 4000010c <_etext+0x1ffff806>
2000011e:	fef42623          	sw	a5,-20(s0)
20000122:	fdc42703          	lw	a4,-36(s0)
20000126:	6789                	lui	a5,0x2
20000128:	71078793          	addi	a5,a5,1808 # 2710 <mcause_trap_table-0xfffd8f0>
2000012c:	02f70733          	mul	a4,a4,a5
20000130:	fec42783          	lw	a5,-20(s0)
20000134:	c398                	sw	a4,0(a5)
20000136:	40000437          	lui	s0,0x40000
2000013a:	10042823          	sw	zero,272(s0) # 40000110 <_etext+0x1ffff80a>
2000013e:	08000293          	li	t0,128
20000142:	4321                	li	t1,8
20000144:	30031073          	csrw	mstatus,t1
20000148:	30429073          	csrw	mie,t0
2000014c:	000205b7          	lui	a1,0x20
20000150:	0589                	addi	a1,a1,2
20000152:	10b42023          	sw	a1,256(s0)
20000156:	4285                	li	t0,1
20000158:	10542a23          	sw	t0,276(s0)
2000015c:	00542023          	sw	t0,0(s0)
20000160:	10500073          	wfi
20000164:	0001                	nop
20000166:	5432                	lw	s0,44(sp)
20000168:	6145                	addi	sp,sp,48
2000016a:	8082                	ret

2000016c <index_to_mask>:
2000016c:	1101                	addi	sp,sp,-32
2000016e:	ce22                	sw	s0,28(sp)
20000170:	1000                	addi	s0,sp,32
20000172:	fea42623          	sw	a0,-20(s0)
20000176:	fec42783          	lw	a5,-20(s0)
2000017a:	4705                	li	a4,1
2000017c:	00f717b3          	sll	a5,a4,a5
20000180:	853e                	mv	a0,a5
20000182:	4472                	lw	s0,28(sp)
20000184:	6105                	addi	sp,sp,32
20000186:	8082                	ret

20000188 <mem_write32>:
20000188:	1101                	addi	sp,sp,-32
2000018a:	ce22                	sw	s0,28(sp)
2000018c:	1000                	addi	s0,sp,32
2000018e:	fea42623          	sw	a0,-20(s0)
20000192:	feb42423          	sw	a1,-24(s0)
20000196:	fec42223          	sw	a2,-28(s0)
2000019a:	fe842783          	lw	a5,-24(s0)
2000019e:	ffc7f713          	andi	a4,a5,-4
200001a2:	fec42783          	lw	a5,-20(s0)
200001a6:	97ba                	add	a5,a5,a4
200001a8:	873e                	mv	a4,a5
200001aa:	fe442783          	lw	a5,-28(s0)
200001ae:	c31c                	sw	a5,0(a4)
200001b0:	0001                	nop
200001b2:	4472                	lw	s0,28(sp)
200001b4:	6105                	addi	sp,sp,32
200001b6:	8082                	ret

200001b8 <mem_read32>:
200001b8:	1101                	addi	sp,sp,-32
200001ba:	ce22                	sw	s0,28(sp)
200001bc:	1000                	addi	s0,sp,32
200001be:	fea42623          	sw	a0,-20(s0)
200001c2:	feb42423          	sw	a1,-24(s0)
200001c6:	fe842783          	lw	a5,-24(s0)
200001ca:	ffc7f713          	andi	a4,a5,-4
200001ce:	fec42783          	lw	a5,-20(s0)
200001d2:	97ba                	add	a5,a5,a4
200001d4:	439c                	lw	a5,0(a5)
200001d6:	853e                	mv	a0,a5
200001d8:	4472                	lw	s0,28(sp)
200001da:	6105                	addi	sp,sp,32
200001dc:	8082                	ret

200001de <bitfield_bit32_to_field32>:
200001de:	7179                	addi	sp,sp,-48
200001e0:	d622                	sw	s0,44(sp)
200001e2:	1800                	addi	s0,sp,48
200001e4:	fca42e23          	sw	a0,-36(s0)
200001e8:	4785                	li	a5,1
200001ea:	fef42423          	sw	a5,-24(s0)
200001ee:	fdc42783          	lw	a5,-36(s0)
200001f2:	fef42623          	sw	a5,-20(s0)
200001f6:	fe842703          	lw	a4,-24(s0)
200001fa:	fec42783          	lw	a5,-20(s0)
200001fe:	863a                	mv	a2,a4
20000200:	86be                	mv	a3,a5
20000202:	8732                	mv	a4,a2
20000204:	87b6                	mv	a5,a3
20000206:	853a                	mv	a0,a4
20000208:	85be                	mv	a1,a5
2000020a:	5432                	lw	s0,44(sp)
2000020c:	6145                	addi	sp,sp,48
2000020e:	8082                	ret

20000210 <bitfield_field32_write>:
20000210:	1101                	addi	sp,sp,-32
20000212:	ce22                	sw	s0,28(sp)
20000214:	1000                	addi	s0,sp,32
20000216:	fea42623          	sw	a0,-20(s0)
2000021a:	feb42223          	sw	a1,-28(s0)
2000021e:	fec42423          	sw	a2,-24(s0)
20000222:	fed42023          	sw	a3,-32(s0)
20000226:	fe442703          	lw	a4,-28(s0)
2000022a:	fe842783          	lw	a5,-24(s0)
2000022e:	00f717b3          	sll	a5,a4,a5
20000232:	fff7c793          	not	a5,a5
20000236:	fec42703          	lw	a4,-20(s0)
2000023a:	8ff9                	and	a5,a5,a4
2000023c:	fef42623          	sw	a5,-20(s0)
20000240:	fe442703          	lw	a4,-28(s0)
20000244:	fe042783          	lw	a5,-32(s0)
20000248:	8f7d                	and	a4,a4,a5
2000024a:	fe842783          	lw	a5,-24(s0)
2000024e:	00f717b3          	sll	a5,a4,a5
20000252:	fec42703          	lw	a4,-20(s0)
20000256:	8fd9                	or	a5,a5,a4
20000258:	fef42623          	sw	a5,-20(s0)
2000025c:	fec42783          	lw	a5,-20(s0)
20000260:	853e                	mv	a0,a5
20000262:	4472                	lw	s0,28(sp)
20000264:	6105                	addi	sp,sp,32
20000266:	8082                	ret

20000268 <bitfield_bit32_write>:
20000268:	7179                	addi	sp,sp,-48
2000026a:	d606                	sw	ra,44(sp)
2000026c:	d422                	sw	s0,40(sp)
2000026e:	1800                	addi	s0,sp,48
20000270:	fca42e23          	sw	a0,-36(s0)
20000274:	fcb42c23          	sw	a1,-40(s0)
20000278:	87b2                	mv	a5,a2
2000027a:	fcf40ba3          	sb	a5,-41(s0)
2000027e:	fd842503          	lw	a0,-40(s0)
20000282:	3fb1                	jal	200001de <bitfield_bit32_to_field32>
20000284:	872a                	mv	a4,a0
20000286:	87ae                	mv	a5,a1
20000288:	fee42423          	sw	a4,-24(s0)
2000028c:	fef42623          	sw	a5,-20(s0)
20000290:	fd744783          	lbu	a5,-41(s0)
20000294:	c399                	beqz	a5,2000029a <bitfield_bit32_write+0x32>
20000296:	4785                	li	a5,1
20000298:	a011                	j	2000029c <bitfield_bit32_write+0x34>
2000029a:	4781                	li	a5,0
2000029c:	86be                	mv	a3,a5
2000029e:	fe842583          	lw	a1,-24(s0)
200002a2:	fec42603          	lw	a2,-20(s0)
200002a6:	fdc42503          	lw	a0,-36(s0)
200002aa:	379d                	jal	20000210 <bitfield_field32_write>
200002ac:	87aa                	mv	a5,a0
200002ae:	853e                	mv	a0,a5
200002b0:	50b2                	lw	ra,44(sp)
200002b2:	5422                	lw	s0,40(sp)
200002b4:	6145                	addi	sp,sp,48
200002b6:	8082                	ret

200002b8 <bitfield_field32_read>:
200002b8:	1101                	addi	sp,sp,-32
200002ba:	ce22                	sw	s0,28(sp)
200002bc:	1000                	addi	s0,sp,32
200002be:	fea42623          	sw	a0,-20(s0)
200002c2:	feb42223          	sw	a1,-28(s0)
200002c6:	fec42423          	sw	a2,-24(s0)
200002ca:	fe842783          	lw	a5,-24(s0)
200002ce:	fec42703          	lw	a4,-20(s0)
200002d2:	00f75733          	srl	a4,a4,a5
200002d6:	fe442783          	lw	a5,-28(s0)
200002da:	8ff9                	and	a5,a5,a4
200002dc:	853e                	mv	a0,a5
200002de:	4472                	lw	s0,28(sp)
200002e0:	6105                	addi	sp,sp,32
200002e2:	8082                	ret

200002e4 <bitfield_bit32_read>:
200002e4:	7179                	addi	sp,sp,-48
200002e6:	d606                	sw	ra,44(sp)
200002e8:	d422                	sw	s0,40(sp)
200002ea:	1800                	addi	s0,sp,48
200002ec:	fca42e23          	sw	a0,-36(s0)
200002f0:	fcb42c23          	sw	a1,-40(s0)
200002f4:	fd842503          	lw	a0,-40(s0)
200002f8:	35dd                	jal	200001de <bitfield_bit32_to_field32>
200002fa:	872a                	mv	a4,a0
200002fc:	87ae                	mv	a5,a1
200002fe:	fee42423          	sw	a4,-24(s0)
20000302:	fef42623          	sw	a5,-20(s0)
20000306:	fe842583          	lw	a1,-24(s0)
2000030a:	fec42603          	lw	a2,-20(s0)
2000030e:	fdc42503          	lw	a0,-36(s0)
20000312:	375d                	jal	200002b8 <bitfield_field32_read>
20000314:	87aa                	mv	a5,a0
20000316:	17fd                	addi	a5,a5,-1
20000318:	0017b793          	seqz	a5,a5
2000031c:	0ff7f793          	andi	a5,a5,255
20000320:	853e                	mv	a0,a5
20000322:	50b2                	lw	ra,44(sp)
20000324:	5422                	lw	s0,40(sp)
20000326:	6145                	addi	sp,sp,48
20000328:	8082                	ret

2000032a <extract_ie_code>:
2000032a:	7179                	addi	sp,sp,-48
2000032c:	d622                	sw	s0,44(sp)
2000032e:	1800                	addi	s0,sp,48
20000330:	fca42e23          	sw	a0,-36(s0)
20000334:	fdc42703          	lw	a4,-36(s0)
20000338:	800007b7          	lui	a5,0x80000
2000033c:	fff7c793          	not	a5,a5
20000340:	8ff9                	and	a5,a5,a4
20000342:	fef42623          	sw	a5,-20(s0)
20000346:	fec42783          	lw	a5,-20(s0)
2000034a:	853e                	mv	a0,a5
2000034c:	5432                	lw	s0,44(sp)
2000034e:	6145                	addi	sp,sp,48
20000350:	8082                	ret

20000352 <default_handler>:
20000352:	1101                	addi	sp,sp,-32
20000354:	ce22                	sw	s0,28(sp)
20000356:	1000                	addi	s0,sp,32
20000358:	fea42623          	sw	a0,-20(s0)
2000035c:	feb42423          	sw	a1,-24(s0)
20000360:	a001                	j	20000360 <default_handler+0xe>

20000362 <handle_trap>:
20000362:	7179                	addi	sp,sp,-48
20000364:	d606                	sw	ra,44(sp)
20000366:	d422                	sw	s0,40(sp)
20000368:	1800                	addi	s0,sp,48
2000036a:	fca42e23          	sw	a0,-36(s0)
2000036e:	fcb42c23          	sw	a1,-40(s0)
20000372:	fe042623          	sw	zero,-20(s0)
20000376:	fe042423          	sw	zero,-24(s0)
2000037a:	47fd                	li	a5,31
2000037c:	fef42423          	sw	a5,-24(s0)
20000380:	fe842783          	lw	a5,-24(s0)
20000384:	4705                	li	a4,1
20000386:	00f717b3          	sll	a5,a4,a5
2000038a:	873e                	mv	a4,a5
2000038c:	fdc42783          	lw	a5,-36(s0)
20000390:	8ff9                	and	a5,a5,a4
20000392:	cf85                	beqz	a5,200003ca <handle_trap+0x68>
20000394:	fdc42503          	lw	a0,-36(s0)
20000398:	3f49                	jal	2000032a <extract_ie_code>
2000039a:	fea42623          	sw	a0,-20(s0)
2000039e:	fec42703          	lw	a4,-20(s0)
200003a2:	47ad                	li	a5,11
200003a4:	00f71863          	bne	a4,a5,200003b4 <handle_trap+0x52>
200003a8:	fd842583          	lw	a1,-40(s0)
200003ac:	fdc42503          	lw	a0,-36(s0)
200003b0:	2289                	jal	200004f2 <mach_plic_handler>
200003b2:	a805                	j	200003e2 <handle_trap+0x80>
200003b4:	fec42703          	lw	a4,-20(s0)
200003b8:	479d                	li	a5,7
200003ba:	02f71463          	bne	a4,a5,200003e2 <handle_trap+0x80>
200003be:	fd842583          	lw	a1,-40(s0)
200003c2:	fdc42503          	lw	a0,-36(s0)
200003c6:	39fd                	jal	200000c4 <mach_timer_handler>
200003c8:	a829                	j	200003e2 <handle_trap+0x80>
200003ca:	00018713          	mv	a4,gp
200003ce:	fdc42783          	lw	a5,-36(s0)
200003d2:	078a                	slli	a5,a5,0x2
200003d4:	97ba                	add	a5,a5,a4
200003d6:	439c                	lw	a5,0(a5)
200003d8:	fd842583          	lw	a1,-40(s0)
200003dc:	fdc42503          	lw	a0,-36(s0)
200003e0:	9782                	jalr	a5
200003e2:	fd842783          	lw	a5,-40(s0)
200003e6:	853e                	mv	a0,a5
200003e8:	50b2                	lw	ra,44(sp)
200003ea:	5422                	lw	s0,40(sp)
200003ec:	6145                	addi	sp,sp,48
200003ee:	8082                	ret

200003f0 <index_to_mask>:
200003f0:	1101                	addi	sp,sp,-32
200003f2:	ce22                	sw	s0,28(sp)
200003f4:	1000                	addi	s0,sp,32
200003f6:	fea42623          	sw	a0,-20(s0)
200003fa:	fec42783          	lw	a5,-20(s0)
200003fe:	4705                	li	a4,1
20000400:	00f717b3          	sll	a5,a4,a5
20000404:	853e                	mv	a0,a5
20000406:	4472                	lw	s0,28(sp)
20000408:	6105                	addi	sp,sp,32
2000040a:	8082                	ret

2000040c <plic_priority_reg_offset>:
2000040c:	7179                	addi	sp,sp,-48
2000040e:	d622                	sw	s0,44(sp)
20000410:	1800                	addi	s0,sp,48
20000412:	fca42e23          	sw	a0,-36(s0)
20000416:	fdc42783          	lw	a5,-36(s0)
2000041a:	078a                	slli	a5,a5,0x2
2000041c:	fef42623          	sw	a5,-20(s0)
20000420:	fec42783          	lw	a5,-20(s0)
20000424:	07a1                	addi	a5,a5,8
20000426:	853e                	mv	a0,a5
20000428:	5432                	lw	s0,44(sp)
2000042a:	6145                	addi	sp,sp,48
2000042c:	8082                	ret

2000042e <plic_offset_from_reg0>:
2000042e:	7179                	addi	sp,sp,-48
20000430:	d622                	sw	s0,44(sp)
20000432:	1800                	addi	s0,sp,48
20000434:	fca42e23          	sw	a0,-36(s0)
20000438:	fdc42783          	lw	a5,-36(s0)
2000043c:	8395                	srli	a5,a5,0x5
2000043e:	fef407a3          	sb	a5,-17(s0)
20000442:	fef44783          	lbu	a5,-17(s0)
20000446:	078a                	slli	a5,a5,0x2
20000448:	853e                	mv	a0,a5
2000044a:	5432                	lw	s0,44(sp)
2000044c:	6145                	addi	sp,sp,48
2000044e:	8082                	ret

20000450 <plic_irq_bit_index>:
20000450:	1101                	addi	sp,sp,-32
20000452:	ce22                	sw	s0,28(sp)
20000454:	1000                	addi	s0,sp,32
20000456:	fea42623          	sw	a0,-20(s0)
2000045a:	fec42783          	lw	a5,-20(s0)
2000045e:	0ff7f793          	andi	a5,a5,255
20000462:	8bfd                	andi	a5,a5,31
20000464:	0ff7f793          	andi	a5,a5,255
20000468:	853e                	mv	a0,a5
2000046a:	4472                	lw	s0,28(sp)
2000046c:	6105                	addi	sp,sp,32
2000046e:	8082                	ret

20000470 <plic_irq_enable_reg_info>:
20000470:	715d                	addi	sp,sp,-80
20000472:	c686                	sw	ra,76(sp)
20000474:	c4a2                	sw	s0,72(sp)
20000476:	c2a6                	sw	s1,68(sp)
20000478:	c0ca                	sw	s2,64(sp)
2000047a:	de4e                	sw	s3,60(sp)
2000047c:	0880                	addi	s0,sp,80
2000047e:	faa42e23          	sw	a0,-68(s0)
20000482:	fbc42503          	lw	a0,-68(s0)
20000486:	3765                	jal	2000042e <plic_offset_from_reg0>
20000488:	fca42e23          	sw	a0,-36(s0)
2000048c:	fdc42783          	lw	a5,-36(s0)
20000490:	10078493          	addi	s1,a5,256 # 80000100 <_etext+0x5ffff7fa>
20000494:	fbc42503          	lw	a0,-68(s0)
20000498:	3f65                	jal	20000450 <plic_irq_bit_index>
2000049a:	87aa                	mv	a5,a0
2000049c:	fc942a23          	sw	s1,-44(s0)
200004a0:	fcf42c23          	sw	a5,-40(s0)
200004a4:	fd442703          	lw	a4,-44(s0)
200004a8:	fd842783          	lw	a5,-40(s0)
200004ac:	893a                	mv	s2,a4
200004ae:	89be                	mv	s3,a5
200004b0:	874a                	mv	a4,s2
200004b2:	87ce                	mv	a5,s3
200004b4:	853a                	mv	a0,a4
200004b6:	85be                	mv	a1,a5
200004b8:	40b6                	lw	ra,76(sp)
200004ba:	4426                	lw	s0,72(sp)
200004bc:	4496                	lw	s1,68(sp)
200004be:	4906                	lw	s2,64(sp)
200004c0:	59f2                	lw	s3,60(sp)
200004c2:	6161                	addi	sp,sp,80
200004c4:	8082                	ret

200004c6 <interrupt_claim_request>:
200004c6:	1101                	addi	sp,sp,-32
200004c8:	ce22                	sw	s0,28(sp)
200004ca:	1000                	addi	s0,sp,32
200004cc:	fe042623          	sw	zero,-20(s0)
200004d0:	400507b7          	lui	a5,0x40050
200004d4:	10878793          	addi	a5,a5,264 # 40050108 <_etext+0x2004f802>
200004d8:	fef42623          	sw	a5,-20(s0)
200004dc:	fec42783          	lw	a5,-20(s0)
200004e0:	439c                	lw	a5,0(a5)
200004e2:	fef42423          	sw	a5,-24(s0)
200004e6:	fe842783          	lw	a5,-24(s0)
200004ea:	853e                	mv	a0,a5
200004ec:	4472                	lw	s0,28(sp)
200004ee:	6105                	addi	sp,sp,32
200004f0:	8082                	ret

200004f2 <mach_plic_handler>:
200004f2:	7179                	addi	sp,sp,-48
200004f4:	d606                	sw	ra,44(sp)
200004f6:	d422                	sw	s0,40(sp)
200004f8:	1800                	addi	s0,sp,48
200004fa:	fca42e23          	sw	a0,-36(s0)
200004fe:	fcb42c23          	sw	a1,-40(s0)
20000502:	28e1                	jal	200005da <plic_irq_claim>
20000504:	fea42623          	sw	a0,-20(s0)
20000508:	08018713          	addi	a4,gp,128 # 10000080 <isr_table>
2000050c:	fec42783          	lw	a5,-20(s0)
20000510:	078a                	slli	a5,a5,0x2
20000512:	97ba                	add	a5,a5,a4
20000514:	439c                	lw	a5,0(a5)
20000516:	fec42503          	lw	a0,-20(s0)
2000051a:	9782                	jalr	a5
2000051c:	fec42503          	lw	a0,-20(s0)
20000520:	28f9                	jal	200005fe <plic_irq_complete>
20000522:	0001                	nop
20000524:	50b2                	lw	ra,44(sp)
20000526:	5422                	lw	s0,40(sp)
20000528:	6145                	addi	sp,sp,48
2000052a:	8082                	ret

2000052c <plic_set_priority>:
2000052c:	7179                	addi	sp,sp,-48
2000052e:	d606                	sw	ra,44(sp)
20000530:	d422                	sw	s0,40(sp)
20000532:	1800                	addi	s0,sp,48
20000534:	fca42e23          	sw	a0,-36(s0)
20000538:	fcb42c23          	sw	a1,-40(s0)
2000053c:	fdc42783          	lw	a5,-36(s0)
20000540:	853e                	mv	a0,a5
20000542:	35e9                	jal	2000040c <plic_priority_reg_offset>
20000544:	fea42623          	sw	a0,-20(s0)
20000548:	fec42783          	lw	a5,-20(s0)
2000054c:	fd842603          	lw	a2,-40(s0)
20000550:	85be                	mv	a1,a5
20000552:	40050537          	lui	a0,0x40050
20000556:	390d                	jal	20000188 <mem_write32>
20000558:	0001                	nop
2000055a:	50b2                	lw	ra,44(sp)
2000055c:	5422                	lw	s0,40(sp)
2000055e:	6145                	addi	sp,sp,48
20000560:	8082                	ret

20000562 <plic_set_threshold>:
20000562:	1101                	addi	sp,sp,-32
20000564:	ce06                	sw	ra,28(sp)
20000566:	cc22                	sw	s0,24(sp)
20000568:	1000                	addi	s0,sp,32
2000056a:	fea42623          	sw	a0,-20(s0)
2000056e:	fec42603          	lw	a2,-20(s0)
20000572:	10400593          	li	a1,260
20000576:	40050537          	lui	a0,0x40050
2000057a:	3139                	jal	20000188 <mem_write32>
2000057c:	0001                	nop
2000057e:	40f2                	lw	ra,28(sp)
20000580:	4462                	lw	s0,24(sp)
20000582:	6105                	addi	sp,sp,32
20000584:	8082                	ret

20000586 <plic_enable_interrupt>:
20000586:	7179                	addi	sp,sp,-48
20000588:	d606                	sw	ra,44(sp)
2000058a:	d422                	sw	s0,40(sp)
2000058c:	1800                	addi	s0,sp,48
2000058e:	fca42e23          	sw	a0,-36(s0)
20000592:	fdc42783          	lw	a5,-36(s0)
20000596:	8bfd                	andi	a5,a5,31
20000598:	853e                	mv	a0,a5
2000059a:	3d99                	jal	200003f0 <index_to_mask>
2000059c:	fea42623          	sw	a0,-20(s0)
200005a0:	fec42603          	lw	a2,-20(s0)
200005a4:	10000593          	li	a1,256
200005a8:	40050537          	lui	a0,0x40050
200005ac:	3ef1                	jal	20000188 <mem_write32>
200005ae:	0001                	nop
200005b0:	50b2                	lw	ra,44(sp)
200005b2:	5422                	lw	s0,40(sp)
200005b4:	6145                	addi	sp,sp,48
200005b6:	8082                	ret

200005b8 <plic_set_trigger_type>:
200005b8:	1101                	addi	sp,sp,-32
200005ba:	ce06                	sw	ra,28(sp)
200005bc:	cc22                	sw	s0,24(sp)
200005be:	1000                	addi	s0,sp,32
200005c0:	fea42623          	sw	a0,-20(s0)
200005c4:	fec42603          	lw	a2,-20(s0)
200005c8:	4591                	li	a1,4
200005ca:	40050537          	lui	a0,0x40050
200005ce:	3e6d                	jal	20000188 <mem_write32>
200005d0:	0001                	nop
200005d2:	40f2                	lw	ra,28(sp)
200005d4:	4462                	lw	s0,24(sp)
200005d6:	6105                	addi	sp,sp,32
200005d8:	8082                	ret

200005da <plic_irq_claim>:
200005da:	1101                	addi	sp,sp,-32
200005dc:	ce06                	sw	ra,28(sp)
200005de:	cc22                	sw	s0,24(sp)
200005e0:	1000                	addi	s0,sp,32
200005e2:	10800593          	li	a1,264
200005e6:	40050537          	lui	a0,0x40050
200005ea:	36f9                	jal	200001b8 <mem_read32>
200005ec:	fea42623          	sw	a0,-20(s0)
200005f0:	fec42783          	lw	a5,-20(s0)
200005f4:	853e                	mv	a0,a5
200005f6:	40f2                	lw	ra,28(sp)
200005f8:	4462                	lw	s0,24(sp)
200005fa:	6105                	addi	sp,sp,32
200005fc:	8082                	ret

200005fe <plic_irq_complete>:
200005fe:	1101                	addi	sp,sp,-32
20000600:	ce06                	sw	ra,28(sp)
20000602:	cc22                	sw	s0,24(sp)
20000604:	1000                	addi	s0,sp,32
20000606:	fea42623          	sw	a0,-20(s0)
2000060a:	fec42603          	lw	a2,-20(s0)
2000060e:	10800593          	li	a1,264
20000612:	40050537          	lui	a0,0x40050
20000616:	3e8d                	jal	20000188 <mem_write32>
20000618:	0001                	nop
2000061a:	40f2                	lw	ra,28(sp)
2000061c:	4462                	lw	s0,24(sp)
2000061e:	6105                	addi	sp,sp,32
20000620:	8082                	ret

20000622 <plic_init>:
20000622:	1101                	addi	sp,sp,-32
20000624:	ce06                	sw	ra,28(sp)
20000626:	cc22                	sw	s0,24(sp)
20000628:	1000                	addi	s0,sp,32
2000062a:	fea42623          	sw	a0,-20(s0)
2000062e:	4509                	li	a0,2
20000630:	3f0d                	jal	20000562 <plic_set_threshold>
20000632:	458d                	li	a1,3
20000634:	fec42503          	lw	a0,-20(s0)
20000638:	3dd5                	jal	2000052c <plic_set_priority>
2000063a:	fec42783          	lw	a5,-20(s0)
2000063e:	853e                	mv	a0,a5
20000640:	3799                	jal	20000586 <plic_enable_interrupt>
20000642:	4501                	li	a0,0
20000644:	3f95                	jal	200005b8 <plic_set_trigger_type>
20000646:	0001                	nop
20000648:	40f2                	lw	ra,28(sp)
2000064a:	4462                	lw	s0,24(sp)
2000064c:	6105                	addi	sp,sp,32
2000064e:	8082                	ret

20000650 <index_to_mask>:
20000650:	1101                	addi	sp,sp,-32
20000652:	ce22                	sw	s0,28(sp)
20000654:	1000                	addi	s0,sp,32
20000656:	fea42623          	sw	a0,-20(s0)
2000065a:	fec42783          	lw	a5,-20(s0)
2000065e:	4705                	li	a4,1
20000660:	00f717b3          	sll	a5,a4,a5
20000664:	853e                	mv	a0,a5
20000666:	4472                	lw	s0,28(sp)
20000668:	6105                	addi	sp,sp,32
2000066a:	8082                	ret

2000066c <gpio_direct_bit_write>:
2000066c:	7179                	addi	sp,sp,-48
2000066e:	d606                	sw	ra,44(sp)
20000670:	d422                	sw	s0,40(sp)
20000672:	1800                	addi	s0,sp,48
20000674:	fca42e23          	sw	a0,-36(s0)
20000678:	fcb42c23          	sw	a1,-40(s0)
2000067c:	87b2                	mv	a5,a2
2000067e:	fcf40ba3          	sb	a5,-41(s0)
20000682:	fd842783          	lw	a5,-40(s0)
20000686:	8bfd                	andi	a5,a5,31
20000688:	853e                	mv	a0,a5
2000068a:	37d9                	jal	20000650 <index_to_mask>
2000068c:	fea42623          	sw	a0,-20(s0)
20000690:	fd744783          	lbu	a5,-41(s0)
20000694:	c781                	beqz	a5,2000069c <gpio_direct_bit_write+0x30>
20000696:	fec42783          	lw	a5,-20(s0)
2000069a:	a011                	j	2000069e <gpio_direct_bit_write+0x32>
2000069c:	4781                	li	a5,0
2000069e:	863e                	mv	a2,a5
200006a0:	fdc42583          	lw	a1,-36(s0)
200006a4:	400c0537          	lui	a0,0x400c0
200006a8:	34c5                	jal	20000188 <mem_write32>
200006aa:	0001                	nop
200006ac:	50b2                	lw	ra,44(sp)
200006ae:	5422                	lw	s0,40(sp)
200006b0:	6145                	addi	sp,sp,48
200006b2:	8082                	ret

200006b4 <gpio_intr_enable>:
200006b4:	1101                	addi	sp,sp,-32
200006b6:	ce06                	sw	ra,28(sp)
200006b8:	cc22                	sw	s0,24(sp)
200006ba:	1000                	addi	s0,sp,32
200006bc:	fea42623          	sw	a0,-20(s0)
200006c0:	4605                	li	a2,1
200006c2:	fec42583          	lw	a1,-20(s0)
200006c6:	4511                	li	a0,4
200006c8:	3755                	jal	2000066c <gpio_direct_bit_write>
200006ca:	0001                	nop
200006cc:	40f2                	lw	ra,28(sp)
200006ce:	4462                	lw	s0,24(sp)
200006d0:	6105                	addi	sp,sp,32
200006d2:	8082                	ret

200006d4 <gpio_intr_type>:
200006d4:	1101                	addi	sp,sp,-32
200006d6:	ce06                	sw	ra,28(sp)
200006d8:	cc22                	sw	s0,24(sp)
200006da:	1000                	addi	s0,sp,32
200006dc:	fea42623          	sw	a0,-20(s0)
200006e0:	4605                	li	a2,1
200006e2:	fec42583          	lw	a1,-20(s0)
200006e6:	03000513          	li	a0,48
200006ea:	3749                	jal	2000066c <gpio_direct_bit_write>
200006ec:	0001                	nop
200006ee:	40f2                	lw	ra,28(sp)
200006f0:	4462                	lw	s0,24(sp)
200006f2:	6105                	addi	sp,sp,32
200006f4:	8082                	ret

200006f6 <gpio_masked_bit_write>:
200006f6:	7179                	addi	sp,sp,-48
200006f8:	d606                	sw	ra,44(sp)
200006fa:	d422                	sw	s0,40(sp)
200006fc:	1800                	addi	s0,sp,48
200006fe:	fca42e23          	sw	a0,-36(s0)
20000702:	fcb42c23          	sw	a1,-40(s0)
20000706:	fcc42a23          	sw	a2,-44(s0)
2000070a:	fcd42823          	sw	a3,-48(s0)
2000070e:	fd442703          	lw	a4,-44(s0)
20000712:	67c1                	lui	a5,0x10
20000714:	17fd                	addi	a5,a5,-1
20000716:	8ff9                	and	a5,a5,a4
20000718:	fef42623          	sw	a5,-20(s0)
2000071c:	fd442703          	lw	a4,-44(s0)
20000720:	77c1                	lui	a5,0xffff0
20000722:	8ff9                	and	a5,a5,a4
20000724:	fef42423          	sw	a5,-24(s0)
20000728:	fec42783          	lw	a5,-20(s0)
2000072c:	c38d                	beqz	a5,2000074e <gpio_masked_bit_write+0x58>
2000072e:	fec42783          	lw	a5,-20(s0)
20000732:	01079713          	slli	a4,a5,0x10
20000736:	fd042683          	lw	a3,-48(s0)
2000073a:	67c1                	lui	a5,0x10
2000073c:	17fd                	addi	a5,a5,-1
2000073e:	8ff5                	and	a5,a5,a3
20000740:	8fd9                	or	a5,a5,a4
20000742:	863e                	mv	a2,a5
20000744:	fdc42583          	lw	a1,-36(s0)
20000748:	400c0537          	lui	a0,0x400c0
2000074c:	3c35                	jal	20000188 <mem_write32>
2000074e:	fe842783          	lw	a5,-24(s0)
20000752:	cf91                	beqz	a5,2000076e <gpio_masked_bit_write+0x78>
20000754:	fd042783          	lw	a5,-48(s0)
20000758:	0107d713          	srli	a4,a5,0x10
2000075c:	fe842783          	lw	a5,-24(s0)
20000760:	8fd9                	or	a5,a5,a4
20000762:	863e                	mv	a2,a5
20000764:	fd842583          	lw	a1,-40(s0)
20000768:	400c0537          	lui	a0,0x400c0
2000076c:	3c31                	jal	20000188 <mem_write32>
2000076e:	0001                	nop
20000770:	50b2                	lw	ra,44(sp)
20000772:	5422                	lw	s0,40(sp)
20000774:	6145                	addi	sp,sp,48
20000776:	8082                	ret

20000778 <gpio_masked_write>:
20000778:	7179                	addi	sp,sp,-48
2000077a:	d606                	sw	ra,44(sp)
2000077c:	d422                	sw	s0,40(sp)
2000077e:	1800                	addi	s0,sp,48
20000780:	fca42e23          	sw	a0,-36(s0)
20000784:	fcb42c23          	sw	a1,-40(s0)
20000788:	fdc42703          	lw	a4,-36(s0)
2000078c:	41f75793          	srai	a5,a4,0x1f
20000790:	83ed                	srli	a5,a5,0x1b
20000792:	973e                	add	a4,a4,a5
20000794:	8b7d                	andi	a4,a4,31
20000796:	40f707b3          	sub	a5,a4,a5
2000079a:	853e                	mv	a0,a5
2000079c:	3d55                	jal	20000650 <index_to_mask>
2000079e:	fea42623          	sw	a0,-20(s0)
200007a2:	fec42683          	lw	a3,-20(s0)
200007a6:	67c1                	lui	a5,0x10
200007a8:	fff78613          	addi	a2,a5,-1 # ffff <mcause_trap_table-0xfff0001>
200007ac:	45e1                	li	a1,24
200007ae:	4551                	li	a0,20
200007b0:	3799                	jal	200006f6 <gpio_masked_bit_write>
200007b2:	0001                	nop
200007b4:	50b2                	lw	ra,44(sp)
200007b6:	5422                	lw	s0,40(sp)
200007b8:	6145                	addi	sp,sp,48
200007ba:	8082                	ret

200007bc <gpio_direct_write>:
200007bc:	1101                	addi	sp,sp,-32
200007be:	ce06                	sw	ra,28(sp)
200007c0:	cc22                	sw	s0,24(sp)
200007c2:	1000                	addi	s0,sp,32
200007c4:	fea42623          	sw	a0,-20(s0)
200007c8:	feb42423          	sw	a1,-24(s0)
200007cc:	fec42703          	lw	a4,-20(s0)
200007d0:	fe842783          	lw	a5,-24(s0)
200007d4:	00f037b3          	snez	a5,a5
200007d8:	0ff7f793          	andi	a5,a5,255
200007dc:	863e                	mv	a2,a5
200007de:	85ba                	mv	a1,a4
200007e0:	4541                	li	a0,16
200007e2:	3569                	jal	2000066c <gpio_direct_bit_write>
200007e4:	0001                	nop
200007e6:	40f2                	lw	ra,28(sp)
200007e8:	4462                	lw	s0,24(sp)
200007ea:	6105                	addi	sp,sp,32
200007ec:	8082                	ret

200007ee <gpio_direct_write_all>:
200007ee:	1101                	addi	sp,sp,-32
200007f0:	ce06                	sw	ra,28(sp)
200007f2:	cc22                	sw	s0,24(sp)
200007f4:	1000                	addi	s0,sp,32
200007f6:	fea42623          	sw	a0,-20(s0)
200007fa:	fec42603          	lw	a2,-20(s0)
200007fe:	45c1                	li	a1,16
20000800:	400c0537          	lui	a0,0x400c0
20000804:	3251                	jal	20000188 <mem_write32>
20000806:	0001                	nop
20000808:	40f2                	lw	ra,28(sp)
2000080a:	4462                	lw	s0,24(sp)
2000080c:	6105                	addi	sp,sp,32
2000080e:	8082                	ret

20000810 <gpio_read_all>:
20000810:	1141                	addi	sp,sp,-16
20000812:	c606                	sw	ra,12(sp)
20000814:	c422                	sw	s0,8(sp)
20000816:	0800                	addi	s0,sp,16
20000818:	45b1                	li	a1,12
2000081a:	400c0537          	lui	a0,0x400c0
2000081e:	3a69                	jal	200001b8 <mem_read32>
20000820:	87aa                	mv	a5,a0
20000822:	853e                	mv	a0,a5
20000824:	40b2                	lw	ra,12(sp)
20000826:	4422                	lw	s0,8(sp)
20000828:	0141                	addi	sp,sp,16
2000082a:	8082                	ret

2000082c <gpio_read_pin>:
2000082c:	7179                	addi	sp,sp,-48
2000082e:	d606                	sw	ra,44(sp)
20000830:	d422                	sw	s0,40(sp)
20000832:	1800                	addi	s0,sp,48
20000834:	fca42e23          	sw	a0,-36(s0)
20000838:	45b1                	li	a1,12
2000083a:	400c0537          	lui	a0,0x400c0
2000083e:	3aad                	jal	200001b8 <mem_read32>
20000840:	fea42623          	sw	a0,-20(s0)
20000844:	fdc42783          	lw	a5,-36(s0)
20000848:	fec42703          	lw	a4,-20(s0)
2000084c:	00f757b3          	srl	a5,a4,a5
20000850:	853e                	mv	a0,a5
20000852:	50b2                	lw	ra,44(sp)
20000854:	5422                	lw	s0,40(sp)
20000856:	6145                	addi	sp,sp,48
20000858:	8082                	ret

2000085a <gpio_direct_write_enable>:
2000085a:	1101                	addi	sp,sp,-32
2000085c:	ce06                	sw	ra,28(sp)
2000085e:	cc22                	sw	s0,24(sp)
20000860:	1000                	addi	s0,sp,32
20000862:	fea42623          	sw	a0,-20(s0)
20000866:	fec42783          	lw	a5,-20(s0)
2000086a:	4605                	li	a2,1
2000086c:	85be                	mv	a1,a5
2000086e:	4571                	li	a0,28
20000870:	3bf5                	jal	2000066c <gpio_direct_bit_write>
20000872:	0001                	nop
20000874:	40f2                	lw	ra,28(sp)
20000876:	4462                	lw	s0,24(sp)
20000878:	6105                	addi	sp,sp,32
2000087a:	8082                	ret

2000087c <main>:
2000087c:	1101                	addi	sp,sp,-32
2000087e:	ce06                	sw	ra,28(sp)
20000880:	cc22                	sw	s0,24(sp)
20000882:	1000                	addi	s0,sp,32
20000884:	00000797          	auipc	a5,0x0
20000888:	0b078793          	addi	a5,a5,176 # 20000934 <_etext+0x2e>
2000088c:	639c                	flw	fa5,0(a5)
2000088e:	fef42627          	fsw	fa5,-20(s0)
20000892:	00000797          	auipc	a5,0x0
20000896:	0a678793          	addi	a5,a5,166 # 20000938 <_etext+0x32>
2000089a:	639c                	flw	fa5,0(a5)
2000089c:	fef42427          	fsw	fa5,-24(s0)
200008a0:	00000797          	auipc	a5,0x0
200008a4:	09878793          	addi	a5,a5,152 # 20000938 <_etext+0x32>
200008a8:	6398                	flw	fa4,0(a5)
200008aa:	00000797          	auipc	a5,0x0
200008ae:	08a78793          	addi	a5,a5,138 # 20000934 <_etext+0x2e>
200008b2:	639c                	flw	fa5,0(a5)
200008b4:	20e705d3          	fmv.s	fa1,fa4
200008b8:	20f78553          	fmv.s	fa0,fa5
200008bc:	201d                	jal	200008e2 <float_sub>
200008be:	fea42227          	fsw	fa0,-28(s0)
200008c2:	fe442787          	flw	fa5,-28(s0)
200008c6:	c00797d3          	fcvt.w.s	a5,fa5,rtz
200008ca:	fef42023          	sw	a5,-32(s0)
200008ce:	fe042583          	lw	a1,-32(s0)
200008d2:	450d                	li	a0,3
200008d4:	35e5                	jal	200007bc <gpio_direct_write>
200008d6:	4781                	li	a5,0
200008d8:	853e                	mv	a0,a5
200008da:	40f2                	lw	ra,28(sp)
200008dc:	4462                	lw	s0,24(sp)
200008de:	6105                	addi	sp,sp,32
200008e0:	8082                	ret

200008e2 <float_sub>:
200008e2:	1101                	addi	sp,sp,-32
200008e4:	ce22                	sw	s0,28(sp)
200008e6:	1000                	addi	s0,sp,32
200008e8:	fea42627          	fsw	fa0,-20(s0)
200008ec:	feb42427          	fsw	fa1,-24(s0)
200008f0:	fec42707          	flw	fa4,-20(s0)
200008f4:	fe842787          	flw	fa5,-24(s0)
200008f8:	08f777d3          	fsub.s	fa5,fa4,fa5
200008fc:	20f78553          	fmv.s	fa0,fa5
20000900:	4472                	lw	s0,28(sp)
20000902:	6105                	addi	sp,sp,32
20000904:	8082                	ret

Disassembly of section .eh_frame:

20000908 <.eh_frame>:
20000908:	0014                	0x14
2000090a:	0000                	unimp
2000090c:	0000                	unimp
2000090e:	0000                	unimp
20000910:	00527a03          	0x527a03
20000914:	7c01                	lui	s8,0xfffe0
20000916:	0101                	addi	sp,sp,0
20000918:	07020d1b          	0x7020d1b
2000091c:	0001                	nop
2000091e:	0000                	unimp
20000920:	0010                	0x10
20000922:	0000                	unimp
20000924:	001c                	0x1c
20000926:	0000                	unimp
20000928:	f6e4                	fsw	fs1,108(a3)
2000092a:	ffff                	0xffff
2000092c:	0018                	0x18
2000092e:	0000                	unimp
20000930:	0000                	unimp
20000932:	0000                	unimp

Disassembly of section .rodata:

20000934 <__global_pointer$+0x10000934>:
20000934:	0000                	unimp
20000936:	40b0                	lw	a2,64(s1)
20000938:	0000                	unimp
2000093a:	40d0                	lw	a2,4(s1)

Disassembly of section .bss:

10000000 <mcause_trap_table>:
10000000:	0000                	unimp
10000002:	0000                	unimp
10000004:	0000                	unimp
10000006:	0000                	unimp
10000008:	0000                	unimp
1000000a:	0000                	unimp
1000000c:	0000                	unimp
1000000e:	0000                	unimp
10000010:	0000                	unimp
10000012:	0000                	unimp
10000014:	0000                	unimp
10000016:	0000                	unimp
10000018:	0000                	unimp
1000001a:	0000                	unimp
1000001c:	0000                	unimp
1000001e:	0000                	unimp
10000020:	0000                	unimp
10000022:	0000                	unimp
10000024:	0000                	unimp
10000026:	0000                	unimp
10000028:	0000                	unimp
1000002a:	0000                	unimp
1000002c:	0000                	unimp
1000002e:	0000                	unimp
10000030:	0000                	unimp
10000032:	0000                	unimp
10000034:	0000                	unimp
10000036:	0000                	unimp
10000038:	0000                	unimp
1000003a:	0000                	unimp
1000003c:	0000                	unimp
1000003e:	0000                	unimp

10000040 <mcause_interrupt_table>:
10000040:	0000                	unimp
10000042:	0000                	unimp
10000044:	0000                	unimp
10000046:	0000                	unimp
10000048:	0000                	unimp
1000004a:	0000                	unimp
1000004c:	0000                	unimp
1000004e:	0000                	unimp
10000050:	0000                	unimp
10000052:	0000                	unimp
10000054:	0000                	unimp
10000056:	0000                	unimp
10000058:	0000                	unimp
1000005a:	0000                	unimp
1000005c:	0000                	unimp
1000005e:	0000                	unimp
10000060:	0000                	unimp
10000062:	0000                	unimp
10000064:	0000                	unimp
10000066:	0000                	unimp
10000068:	0000                	unimp
1000006a:	0000                	unimp
1000006c:	0000                	unimp
1000006e:	0000                	unimp
10000070:	0000                	unimp
10000072:	0000                	unimp
10000074:	0000                	unimp
10000076:	0000                	unimp
10000078:	0000                	unimp
1000007a:	0000                	unimp
1000007c:	0000                	unimp
1000007e:	0000                	unimp

10000080 <isr_table>:
10000080:	0000                	unimp
10000082:	0000                	unimp
10000084:	0000                	unimp
10000086:	0000                	unimp
10000088:	0000                	unimp
1000008a:	0000                	unimp
1000008c:	0000                	unimp
1000008e:	0000                	unimp
10000090:	0000                	unimp
10000092:	0000                	unimp
10000094:	0000                	unimp
10000096:	0000                	unimp
10000098:	0000                	unimp
1000009a:	0000                	unimp
1000009c:	0000                	unimp
1000009e:	0000                	unimp
100000a0:	0000                	unimp
100000a2:	0000                	unimp
100000a4:	0000                	unimp
100000a6:	0000                	unimp
100000a8:	0000                	unimp
100000aa:	0000                	unimp
100000ac:	0000                	unimp
100000ae:	0000                	unimp
100000b0:	0000                	unimp
100000b2:	0000                	unimp
100000b4:	0000                	unimp
100000b6:	0000                	unimp
100000b8:	0000                	unimp
100000ba:	0000                	unimp
100000bc:	0000                	unimp
100000be:	0000                	unimp
100000c0:	0000                	unimp
100000c2:	0000                	unimp
100000c4:	0000                	unimp
100000c6:	0000                	unimp
100000c8:	0000                	unimp
100000ca:	0000                	unimp
100000cc:	0000                	unimp
100000ce:	0000                	unimp
100000d0:	0000                	unimp
100000d2:	0000                	unimp
100000d4:	0000                	unimp
100000d6:	0000                	unimp
100000d8:	0000                	unimp
100000da:	0000                	unimp
100000dc:	0000                	unimp
100000de:	0000                	unimp
100000e0:	0000                	unimp
100000e2:	0000                	unimp
100000e4:	0000                	unimp
100000e6:	0000                	unimp
100000e8:	0000                	unimp
100000ea:	0000                	unimp
100000ec:	0000                	unimp
100000ee:	0000                	unimp
100000f0:	0000                	unimp
100000f2:	0000                	unimp
100000f4:	0000                	unimp
100000f6:	0000                	unimp
100000f8:	0000                	unimp
100000fa:	0000                	unimp

