
/home/zeeshan/fyp/azadi/tests/asm/output/add.merl:     file format elf32-littleriscv


Disassembly of section .text:

200000a0 <_stext>:
200000a0:	f8010113          	addi	sp,sp,-128
200000a4:	00000013          	nop
200000a8:	00112223          	sw	ra,4(sp)
200000ac:	00212423          	sw	sp,8(sp)
200000b0:	00312623          	sw	gp,12(sp)
200000b4:	00412823          	sw	tp,16(sp)
200000b8:	00512a23          	sw	t0,20(sp)
200000bc:	00612c23          	sw	t1,24(sp)
200000c0:	00712e23          	sw	t2,28(sp)
200000c4:	02812023          	sw	s0,32(sp)
200000c8:	02912223          	sw	s1,36(sp)
200000cc:	02a12423          	sw	a0,40(sp)
200000d0:	02b12623          	sw	a1,44(sp)
200000d4:	02c12823          	sw	a2,48(sp)
200000d8:	02d12a23          	sw	a3,52(sp)
200000dc:	02e12c23          	sw	a4,56(sp)
200000e0:	02f12e23          	sw	a5,60(sp)
200000e4:	05012023          	sw	a6,64(sp)
200000e8:	05112223          	sw	a7,68(sp)
200000ec:	05212423          	sw	s2,72(sp)
200000f0:	05312623          	sw	s3,76(sp)
200000f4:	05412823          	sw	s4,80(sp)
200000f8:	05512a23          	sw	s5,84(sp)
200000fc:	05612c23          	sw	s6,88(sp)
20000100:	05712e23          	sw	s7,92(sp)
20000104:	07812023          	sw	s8,96(sp)
20000108:	07912223          	sw	s9,100(sp)
2000010c:	07a12423          	sw	s10,104(sp)
20000110:	07b12623          	sw	s11,108(sp)
20000114:	07c12823          	sw	t3,112(sp)
20000118:	07d12a23          	sw	t4,116(sp)
2000011c:	07e12c23          	sw	t5,120(sp)
20000120:	07f12e23          	sw	t6,124(sp)
20000124:	34202573          	csrr	a0,mcause
20000128:	341025f3          	csrr	a1,mepc
2000012c:	00010613          	mv	a2,sp
20000130:	61c000ef          	jal	ra,2000074c <handle_trap>
20000134:	34151073          	csrw	mepc,a0
20000138:	00412083          	lw	ra,4(sp)
2000013c:	00812103          	lw	sp,8(sp)
20000140:	00c12183          	lw	gp,12(sp)
20000144:	01012203          	lw	tp,16(sp)
20000148:	01412283          	lw	t0,20(sp)
2000014c:	01812303          	lw	t1,24(sp)
20000150:	01c12383          	lw	t2,28(sp)
20000154:	02012403          	lw	s0,32(sp)
20000158:	02412483          	lw	s1,36(sp)
2000015c:	02812503          	lw	a0,40(sp)
20000160:	02c12583          	lw	a1,44(sp)
20000164:	03012603          	lw	a2,48(sp)
20000168:	03412683          	lw	a3,52(sp)
2000016c:	03812703          	lw	a4,56(sp)
20000170:	03c12783          	lw	a5,60(sp)
20000174:	04012803          	lw	a6,64(sp)
20000178:	04412883          	lw	a7,68(sp)
2000017c:	04812903          	lw	s2,72(sp)
20000180:	04c12983          	lw	s3,76(sp)
20000184:	05012a03          	lw	s4,80(sp)
20000188:	05412a83          	lw	s5,84(sp)
2000018c:	05812b03          	lw	s6,88(sp)
20000190:	05c12b83          	lw	s7,92(sp)
20000194:	06012c03          	lw	s8,96(sp)
20000198:	06412c83          	lw	s9,100(sp)
2000019c:	06812d03          	lw	s10,104(sp)
200001a0:	06c12d83          	lw	s11,108(sp)
200001a4:	07012e03          	lw	t3,112(sp)
200001a8:	07412e83          	lw	t4,116(sp)
200001ac:	07812f03          	lw	t5,120(sp)
200001b0:	07c12f83          	lw	t6,124(sp)
200001b4:	08010113          	addi	sp,sp,128
200001b8:	30200073          	mret
200001bc:	0000                	unimp
200001be:	0000                	unimp

200001c0 <main>:
200001c0:	fe010113          	addi	sp,sp,-32
200001c4:	00112e23          	sw	ra,28(sp)
200001c8:	00812c23          	sw	s0,24(sp)
200001cc:	02010413          	addi	s0,sp,32
200001d0:	00000797          	auipc	a5,0x0
200001d4:	6bc78793          	addi	a5,a5,1724 # 2000088c <_etext+0x2c>
200001d8:	0007a787          	flw	fa5,0(a5)
200001dc:	fef42627          	fsw	fa5,-20(s0)
200001e0:	00000797          	auipc	a5,0x0
200001e4:	6b078793          	addi	a5,a5,1712 # 20000890 <_etext+0x30>
200001e8:	0007a787          	flw	fa5,0(a5)
200001ec:	fef42427          	fsw	fa5,-24(s0)
200001f0:	fe842583          	lw	a1,-24(s0)
200001f4:	fec42503          	lw	a0,-20(s0)
200001f8:	020000ef          	jal	ra,20000218 <sub>
200001fc:	fea42223          	sw	a0,-28(s0)
20000200:	00000793          	li	a5,0
20000204:	00078513          	mv	a0,a5
20000208:	01c12083          	lw	ra,28(sp)
2000020c:	01812403          	lw	s0,24(sp)
20000210:	02010113          	addi	sp,sp,32
20000214:	00008067          	ret

20000218 <sub>:
20000218:	fe010113          	addi	sp,sp,-32
2000021c:	00812e23          	sw	s0,28(sp)
20000220:	02010413          	addi	s0,sp,32
20000224:	fea42623          	sw	a0,-20(s0)
20000228:	feb42423          	sw	a1,-24(s0)
2000022c:	fec42707          	flw	fa4,-20(s0)
20000230:	fe842787          	flw	fa5,-24(s0)
20000234:	08f777d3          	fsub.s	fa5,fa4,fa5
20000238:	e0078553          	fmv.x.w	a0,fa5
2000023c:	01c12403          	lw	s0,28(sp)
20000240:	02010113          	addi	sp,sp,32
20000244:	00008067          	ret

20000248 <read_word>:
20000248:	fe010113          	addi	sp,sp,-32
2000024c:	00812e23          	sw	s0,28(sp)
20000250:	02010413          	addi	s0,sp,32
20000254:	fea42623          	sw	a0,-20(s0)
20000258:	fec42783          	lw	a5,-20(s0)
2000025c:	0007a783          	lw	a5,0(a5)
20000260:	00078513          	mv	a0,a5
20000264:	01c12403          	lw	s0,28(sp)
20000268:	02010113          	addi	sp,sp,32
2000026c:	00008067          	ret

20000270 <write_word>:
20000270:	fe010113          	addi	sp,sp,-32
20000274:	00812e23          	sw	s0,28(sp)
20000278:	02010413          	addi	s0,sp,32
2000027c:	fea42623          	sw	a0,-20(s0)
20000280:	feb42423          	sw	a1,-24(s0)
20000284:	fec42783          	lw	a5,-20(s0)
20000288:	fe842703          	lw	a4,-24(s0)
2000028c:	00e7a023          	sw	a4,0(a5)
20000290:	00000013          	nop
20000294:	01c12403          	lw	s0,28(sp)
20000298:	02010113          	addi	sp,sp,32
2000029c:	00008067          	ret

200002a0 <interrupt_complete>:
200002a0:	fd010113          	addi	sp,sp,-48
200002a4:	02812623          	sw	s0,44(sp)
200002a8:	03010413          	addi	s0,sp,48
200002ac:	fca42e23          	sw	a0,-36(s0)
200002b0:	400607b7          	lui	a5,0x40060
200002b4:	01078793          	addi	a5,a5,16 # 40060010 <_etext+0x2005f7b0>
200002b8:	fef42623          	sw	a5,-20(s0)
200002bc:	fec42783          	lw	a5,-20(s0)
200002c0:	fdc42703          	lw	a4,-36(s0)
200002c4:	00e7a023          	sw	a4,0(a5)
200002c8:	05018713          	addi	a4,gp,80 # 10000050 <hart0_interrupt_matrix>
200002cc:	fdc42783          	lw	a5,-36(s0)
200002d0:	00479793          	slli	a5,a5,0x4
200002d4:	00f707b3          	add	a5,a4,a5
200002d8:	00200713          	li	a4,2
200002dc:	00e7a423          	sw	a4,8(a5)
200002e0:	05018713          	addi	a4,gp,80 # 10000050 <hart0_interrupt_matrix>
200002e4:	fdc42783          	lw	a5,-36(s0)
200002e8:	00479793          	slli	a5,a5,0x4
200002ec:	00f707b3          	add	a5,a4,a5
200002f0:	00c7a783          	lw	a5,12(a5)
200002f4:	00178713          	addi	a4,a5,1
200002f8:	05018693          	addi	a3,gp,80 # 10000050 <hart0_interrupt_matrix>
200002fc:	fdc42783          	lw	a5,-36(s0)
20000300:	00479793          	slli	a5,a5,0x4
20000304:	00f687b3          	add	a5,a3,a5
20000308:	00e7a623          	sw	a4,12(a5)
2000030c:	00000013          	nop
20000310:	02c12403          	lw	s0,44(sp)
20000314:	03010113          	addi	sp,sp,48
20000318:	00008067          	ret

2000031c <configure_interrupt_pin>:
2000031c:	fe010113          	addi	sp,sp,-32
20000320:	00812e23          	sw	s0,28(sp)
20000324:	02010413          	addi	s0,sp,32
20000328:	fea42623          	sw	a0,-20(s0)
2000032c:	00000013          	nop
20000330:	01c12403          	lw	s0,28(sp)
20000334:	02010113          	addi	sp,sp,32
20000338:	00008067          	ret

2000033c <interrupt_claim_request>:
2000033c:	fe010113          	addi	sp,sp,-32
20000340:	00812e23          	sw	s0,28(sp)
20000344:	02010413          	addi	s0,sp,32
20000348:	fe042623          	sw	zero,-20(s0)
2000034c:	400607b7          	lui	a5,0x40060
20000350:	01078793          	addi	a5,a5,16 # 40060010 <_etext+0x2005f7b0>
20000354:	fef42623          	sw	a5,-20(s0)
20000358:	fec42783          	lw	a5,-20(s0)
2000035c:	0007a783          	lw	a5,0(a5)
20000360:	fef42423          	sw	a5,-24(s0)
20000364:	fe842783          	lw	a5,-24(s0)
20000368:	00078513          	mv	a0,a5
2000036c:	01c12403          	lw	s0,28(sp)
20000370:	02010113          	addi	sp,sp,32
20000374:	00008067          	ret

20000378 <mach_plic_handler>:
20000378:	fd010113          	addi	sp,sp,-48
2000037c:	02112623          	sw	ra,44(sp)
20000380:	02812423          	sw	s0,40(sp)
20000384:	03010413          	addi	s0,sp,48
20000388:	fca42e23          	sw	a0,-36(s0)
2000038c:	fcb42c23          	sw	a1,-40(s0)
20000390:	fadff0ef          	jal	ra,2000033c <interrupt_claim_request>
20000394:	fea42623          	sw	a0,-20(s0)
20000398:	05018713          	addi	a4,gp,80 # 10000050 <hart0_interrupt_matrix>
2000039c:	fec42783          	lw	a5,-20(s0)
200003a0:	00479793          	slli	a5,a5,0x4
200003a4:	00f707b3          	add	a5,a4,a5
200003a8:	00100713          	li	a4,1
200003ac:	00e7a423          	sw	a4,8(a5)
200003b0:	00018713          	mv	a4,gp
200003b4:	fec42783          	lw	a5,-20(s0)
200003b8:	00279793          	slli	a5,a5,0x2
200003bc:	00f707b3          	add	a5,a4,a5
200003c0:	0007a783          	lw	a5,0(a5)
200003c4:	fec42503          	lw	a0,-20(s0)
200003c8:	000780e7          	jalr	a5
200003cc:	fec42503          	lw	a0,-20(s0)
200003d0:	ed1ff0ef          	jal	ra,200002a0 <interrupt_complete>
200003d4:	00000013          	nop
200003d8:	02c12083          	lw	ra,44(sp)
200003dc:	02812403          	lw	s0,40(sp)
200003e0:	03010113          	addi	sp,sp,48
200003e4:	00008067          	ret

200003e8 <interrupt_enable>:
200003e8:	fd010113          	addi	sp,sp,-48
200003ec:	02812623          	sw	s0,44(sp)
200003f0:	03010413          	addi	s0,sp,48
200003f4:	fca42e23          	sw	a0,-36(s0)
200003f8:	fe0407a3          	sb	zero,-17(s0)
200003fc:	fdc42783          	lw	a5,-36(s0)
20000400:	0037d713          	srli	a4,a5,0x3
20000404:	400527b7          	lui	a5,0x40052
20000408:	00f707b3          	add	a5,a4,a5
2000040c:	fef42423          	sw	a5,-24(s0)
20000410:	fe842783          	lw	a5,-24(s0)
20000414:	0007c783          	lbu	a5,0(a5) # 40052000 <_etext+0x200517a0>
20000418:	fef407a3          	sb	a5,-17(s0)
2000041c:	fdc42783          	lw	a5,-36(s0)
20000420:	0077f793          	andi	a5,a5,7
20000424:	00100713          	li	a4,1
20000428:	00f717b3          	sll	a5,a4,a5
2000042c:	01879713          	slli	a4,a5,0x18
20000430:	41875713          	srai	a4,a4,0x18
20000434:	fef40783          	lb	a5,-17(s0)
20000438:	00f767b3          	or	a5,a4,a5
2000043c:	01879793          	slli	a5,a5,0x18
20000440:	4187d793          	srai	a5,a5,0x18
20000444:	fef403a3          	sb	a5,-25(s0)
20000448:	fe842783          	lw	a5,-24(s0)
2000044c:	fe744703          	lbu	a4,-25(s0)
20000450:	00e78023          	sb	a4,0(a5)
20000454:	00000013          	nop
20000458:	02c12403          	lw	s0,44(sp)
2000045c:	03010113          	addi	sp,sp,48
20000460:	00008067          	ret

20000464 <interrupt_disable>:
20000464:	fd010113          	addi	sp,sp,-48
20000468:	02812623          	sw	s0,44(sp)
2000046c:	03010413          	addi	s0,sp,48
20000470:	fca42e23          	sw	a0,-36(s0)
20000474:	fe042623          	sw	zero,-20(s0)
20000478:	fe0405a3          	sb	zero,-21(s0)
2000047c:	fdc42783          	lw	a5,-36(s0)
20000480:	0037d713          	srli	a4,a5,0x3
20000484:	400527b7          	lui	a5,0x40052
20000488:	00f707b3          	add	a5,a4,a5
2000048c:	fef42623          	sw	a5,-20(s0)
20000490:	fec42783          	lw	a5,-20(s0)
20000494:	0007c783          	lbu	a5,0(a5) # 40052000 <_etext+0x200517a0>
20000498:	fef405a3          	sb	a5,-21(s0)
2000049c:	fdc42783          	lw	a5,-36(s0)
200004a0:	0077f793          	andi	a5,a5,7
200004a4:	00100713          	li	a4,1
200004a8:	00f717b3          	sll	a5,a4,a5
200004ac:	01879793          	slli	a5,a5,0x18
200004b0:	4187d793          	srai	a5,a5,0x18
200004b4:	fff7c793          	not	a5,a5
200004b8:	01879713          	slli	a4,a5,0x18
200004bc:	41875713          	srai	a4,a4,0x18
200004c0:	feb40783          	lb	a5,-21(s0)
200004c4:	00f777b3          	and	a5,a4,a5
200004c8:	01879793          	slli	a5,a5,0x18
200004cc:	4187d793          	srai	a5,a5,0x18
200004d0:	fef40523          	sb	a5,-22(s0)
200004d4:	fec42783          	lw	a5,-20(s0)
200004d8:	fea44703          	lbu	a4,-22(s0)
200004dc:	00e78023          	sb	a4,0(a5)
200004e0:	05018713          	addi	a4,gp,80 # 10000050 <hart0_interrupt_matrix>
200004e4:	fdc42783          	lw	a5,-36(s0)
200004e8:	00479793          	slli	a5,a5,0x4
200004ec:	00f707b3          	add	a5,a4,a5
200004f0:	0007a423          	sw	zero,8(a5)
200004f4:	00000013          	nop
200004f8:	02c12403          	lw	s0,44(sp)
200004fc:	03010113          	addi	sp,sp,48
20000500:	00008067          	ret

20000504 <set_interrupt_threshold>:
20000504:	fd010113          	addi	sp,sp,-48
20000508:	02812623          	sw	s0,44(sp)
2000050c:	03010413          	addi	s0,sp,48
20000510:	fca42e23          	sw	a0,-36(s0)
20000514:	fe042623          	sw	zero,-20(s0)
20000518:	400607b7          	lui	a5,0x40060
2000051c:	fef42623          	sw	a5,-20(s0)
20000520:	fec42783          	lw	a5,-20(s0)
20000524:	fdc42703          	lw	a4,-36(s0)
20000528:	00e7a023          	sw	a4,0(a5) # 40060000 <_etext+0x2005f7a0>
2000052c:	00000013          	nop
20000530:	02c12403          	lw	s0,44(sp)
20000534:	03010113          	addi	sp,sp,48
20000538:	00008067          	ret

2000053c <set_interrupt_priority>:
2000053c:	fd010113          	addi	sp,sp,-48
20000540:	02812623          	sw	s0,44(sp)
20000544:	03010413          	addi	s0,sp,48
20000548:	fca42e23          	sw	a0,-36(s0)
2000054c:	fcb42c23          	sw	a1,-40(s0)
20000550:	fd842783          	lw	a5,-40(s0)
20000554:	00279713          	slli	a4,a5,0x2
20000558:	400507b7          	lui	a5,0x40050
2000055c:	00f707b3          	add	a5,a4,a5
20000560:	fef42623          	sw	a5,-20(s0)
20000564:	fec42783          	lw	a5,-20(s0)
20000568:	fdc42703          	lw	a4,-36(s0)
2000056c:	00e7a023          	sw	a4,0(a5) # 40050000 <_etext+0x2004f7a0>
20000570:	00000013          	nop
20000574:	02c12403          	lw	s0,44(sp)
20000578:	03010113          	addi	sp,sp,48
2000057c:	00008067          	ret

20000580 <isr_default>:
20000580:	fe010113          	addi	sp,sp,-32
20000584:	00812e23          	sw	s0,28(sp)
20000588:	02010413          	addi	s0,sp,32
2000058c:	fea42623          	sw	a0,-20(s0)
20000590:	00000013          	nop
20000594:	01c12403          	lw	s0,28(sp)
20000598:	02010113          	addi	sp,sp,32
2000059c:	00008067          	ret

200005a0 <plic_init>:
200005a0:	fe010113          	addi	sp,sp,-32
200005a4:	00112e23          	sw	ra,28(sp)
200005a8:	00812c23          	sw	s0,24(sp)
200005ac:	02010413          	addi	s0,sp,32
200005b0:	fe042623          	sw	zero,-20(s0)
200005b4:	19418793          	addi	a5,gp,404 # 10000194 <mcause_interrupt_table>
200005b8:	00000717          	auipc	a4,0x0
200005bc:	dc070713          	addi	a4,a4,-576 # 20000378 <mach_plic_handler>
200005c0:	00e7a023          	sw	a4,0(a5)
200005c4:	05018793          	addi	a5,gp,80 # 10000050 <hart0_interrupt_matrix>
200005c8:	0007a423          	sw	zero,8(a5)
200005cc:	05018793          	addi	a5,gp,80 # 10000050 <hart0_interrupt_matrix>
200005d0:	0007a023          	sw	zero,0(a5)
200005d4:	05018793          	addi	a5,gp,80 # 10000050 <hart0_interrupt_matrix>
200005d8:	0007a223          	sw	zero,4(a5)
200005dc:	05018793          	addi	a5,gp,80 # 10000050 <hart0_interrupt_matrix>
200005e0:	0007a623          	sw	zero,12(a5)
200005e4:	00100793          	li	a5,1
200005e8:	fef42623          	sw	a5,-20(s0)
200005ec:	0980006f          	j	20000684 <plic_init+0xe4>
200005f0:	05018713          	addi	a4,gp,80 # 10000050 <hart0_interrupt_matrix>
200005f4:	fec42783          	lw	a5,-20(s0)
200005f8:	00479793          	slli	a5,a5,0x4
200005fc:	00f707b3          	add	a5,a4,a5
20000600:	0007a423          	sw	zero,8(a5)
20000604:	05018713          	addi	a4,gp,80 # 10000050 <hart0_interrupt_matrix>
20000608:	fec42783          	lw	a5,-20(s0)
2000060c:	00479793          	slli	a5,a5,0x4
20000610:	00f707b3          	add	a5,a4,a5
20000614:	fec42703          	lw	a4,-20(s0)
20000618:	00e7a023          	sw	a4,0(a5)
2000061c:	05018713          	addi	a4,gp,80 # 10000050 <hart0_interrupt_matrix>
20000620:	fec42783          	lw	a5,-20(s0)
20000624:	00479793          	slli	a5,a5,0x4
20000628:	00f707b3          	add	a5,a4,a5
2000062c:	00200713          	li	a4,2
20000630:	00e7a223          	sw	a4,4(a5)
20000634:	05018713          	addi	a4,gp,80 # 10000050 <hart0_interrupt_matrix>
20000638:	fec42783          	lw	a5,-20(s0)
2000063c:	00479793          	slli	a5,a5,0x4
20000640:	00f707b3          	add	a5,a4,a5
20000644:	0007a623          	sw	zero,12(a5)
20000648:	fec42503          	lw	a0,-20(s0)
2000064c:	e19ff0ef          	jal	ra,20000464 <interrupt_disable>
20000650:	00018713          	mv	a4,gp
20000654:	fec42783          	lw	a5,-20(s0)
20000658:	00279793          	slli	a5,a5,0x2
2000065c:	00f707b3          	add	a5,a4,a5
20000660:	00000717          	auipc	a4,0x0
20000664:	f2070713          	addi	a4,a4,-224 # 20000580 <isr_default>
20000668:	00e7a023          	sw	a4,0(a5)
2000066c:	fec42583          	lw	a1,-20(s0)
20000670:	00200513          	li	a0,2
20000674:	ec9ff0ef          	jal	ra,2000053c <set_interrupt_priority>
20000678:	fec42783          	lw	a5,-20(s0)
2000067c:	00178793          	addi	a5,a5,1
20000680:	fef42623          	sw	a5,-20(s0)
20000684:	fec42703          	lw	a4,-20(s0)
20000688:	01300793          	li	a5,19
2000068c:	f6e7f2e3          	bgeu	a5,a4,200005f0 <plic_init+0x50>
20000690:	00100513          	li	a0,1
20000694:	e71ff0ef          	jal	ra,20000504 <set_interrupt_threshold>
20000698:	00000013          	nop
2000069c:	01c12083          	lw	ra,28(sp)
200006a0:	01812403          	lw	s0,24(sp)
200006a4:	02010113          	addi	sp,sp,32
200006a8:	00008067          	ret

200006ac <configure_interrupt>:
200006ac:	fe010113          	addi	sp,sp,-32
200006b0:	00112e23          	sw	ra,28(sp)
200006b4:	00812c23          	sw	s0,24(sp)
200006b8:	02010413          	addi	s0,sp,32
200006bc:	fea42623          	sw	a0,-20(s0)
200006c0:	fec42703          	lw	a4,-20(s0)
200006c4:	00600793          	li	a5,6
200006c8:	00e7fc63          	bgeu	a5,a4,200006e0 <configure_interrupt+0x34>
200006cc:	fec42703          	lw	a4,-20(s0)
200006d0:	01500793          	li	a5,21
200006d4:	00e7e663          	bltu	a5,a4,200006e0 <configure_interrupt+0x34>
200006d8:	fec42503          	lw	a0,-20(s0)
200006dc:	c41ff0ef          	jal	ra,2000031c <configure_interrupt_pin>
200006e0:	fec42503          	lw	a0,-20(s0)
200006e4:	d05ff0ef          	jal	ra,200003e8 <interrupt_enable>
200006e8:	00000013          	nop
200006ec:	01c12083          	lw	ra,28(sp)
200006f0:	01812403          	lw	s0,24(sp)
200006f4:	02010113          	addi	sp,sp,32
200006f8:	00008067          	ret

200006fc <extract_ie_code>:
200006fc:	fd010113          	addi	sp,sp,-48
20000700:	02812623          	sw	s0,44(sp)
20000704:	03010413          	addi	s0,sp,48
20000708:	fca42e23          	sw	a0,-36(s0)
2000070c:	fdc42703          	lw	a4,-36(s0)
20000710:	800007b7          	lui	a5,0x80000
20000714:	fff7c793          	not	a5,a5
20000718:	00f777b3          	and	a5,a4,a5
2000071c:	fef42623          	sw	a5,-20(s0)
20000720:	fec42783          	lw	a5,-20(s0)
20000724:	00078513          	mv	a0,a5
20000728:	02c12403          	lw	s0,44(sp)
2000072c:	03010113          	addi	sp,sp,48
20000730:	00008067          	ret

20000734 <default_handler>:
20000734:	fe010113          	addi	sp,sp,-32
20000738:	00812e23          	sw	s0,28(sp)
2000073c:	02010413          	addi	s0,sp,32
20000740:	fea42623          	sw	a0,-20(s0)
20000744:	feb42423          	sw	a1,-24(s0)
20000748:	0000006f          	j	20000748 <default_handler+0x14>

2000074c <handle_trap>:
2000074c:	fd010113          	addi	sp,sp,-48
20000750:	02112623          	sw	ra,44(sp)
20000754:	02812423          	sw	s0,40(sp)
20000758:	03010413          	addi	s0,sp,48
2000075c:	fca42e23          	sw	a0,-36(s0)
20000760:	fcb42c23          	sw	a1,-40(s0)
20000764:	fe042623          	sw	zero,-20(s0)
20000768:	fe042423          	sw	zero,-24(s0)
2000076c:	01f00793          	li	a5,31
20000770:	fef42423          	sw	a5,-24(s0)
20000774:	fe842783          	lw	a5,-24(s0)
20000778:	00100713          	li	a4,1
2000077c:	00f717b3          	sll	a5,a4,a5
20000780:	00078713          	mv	a4,a5
20000784:	fdc42783          	lw	a5,-36(s0)
20000788:	00f777b3          	and	a5,a4,a5
2000078c:	02078a63          	beqz	a5,200007c0 <handle_trap+0x74>
20000790:	fdc42503          	lw	a0,-36(s0)
20000794:	f69ff0ef          	jal	ra,200006fc <extract_ie_code>
20000798:	fea42623          	sw	a0,-20(s0)
2000079c:	19418713          	addi	a4,gp,404 # 10000194 <mcause_interrupt_table>
200007a0:	fec42783          	lw	a5,-20(s0)
200007a4:	00279793          	slli	a5,a5,0x2
200007a8:	00f707b3          	add	a5,a4,a5
200007ac:	0007a783          	lw	a5,0(a5) # 80000000 <_etext+0x5ffff7a0>
200007b0:	fd842583          	lw	a1,-40(s0)
200007b4:	fdc42503          	lw	a0,-36(s0)
200007b8:	000780e7          	jalr	a5
200007bc:	0240006f          	j	200007e0 <handle_trap+0x94>
200007c0:	19018713          	addi	a4,gp,400 # 10000190 <mcause_trap_table>
200007c4:	fdc42783          	lw	a5,-36(s0)
200007c8:	00279793          	slli	a5,a5,0x2
200007cc:	00f707b3          	add	a5,a4,a5
200007d0:	0007a783          	lw	a5,0(a5)
200007d4:	fd842583          	lw	a1,-40(s0)
200007d8:	fdc42503          	lw	a0,-36(s0)
200007dc:	000780e7          	jalr	a5
200007e0:	fd842783          	lw	a5,-40(s0)
200007e4:	00078513          	mv	a0,a5
200007e8:	02c12083          	lw	ra,44(sp)
200007ec:	02812403          	lw	s0,40(sp)
200007f0:	03010113          	addi	sp,sp,48
200007f4:	00008067          	ret

200007f8 <trap_init>:
200007f8:	ff010113          	addi	sp,sp,-16
200007fc:	00812623          	sw	s0,12(sp)
20000800:	01010413          	addi	s0,sp,16
20000804:	19418793          	addi	a5,gp,404 # 10000194 <mcause_interrupt_table>
20000808:	00000717          	auipc	a4,0x0
2000080c:	b7070713          	addi	a4,a4,-1168 # 20000378 <mach_plic_handler>
20000810:	00e7a023          	sw	a4,0(a5)
20000814:	19018793          	addi	a5,gp,400 # 10000190 <mcause_trap_table>
20000818:	00000717          	auipc	a4,0x0
2000081c:	f1c70713          	addi	a4,a4,-228 # 20000734 <default_handler>
20000820:	00e7a023          	sw	a4,0(a5)
20000824:	00000013          	nop
20000828:	00c12403          	lw	s0,12(sp)
2000082c:	01010113          	addi	sp,sp,16
20000830:	00008067          	ret

20000834 <init>:
20000834:	ff010113          	addi	sp,sp,-16
20000838:	00112623          	sw	ra,12(sp)
2000083c:	00812423          	sw	s0,8(sp)
20000840:	01010413          	addi	s0,sp,16
20000844:	fb5ff0ef          	jal	ra,200007f8 <trap_init>
20000848:	979ff0ef          	jal	ra,200001c0 <main>
2000084c:	00000013          	nop
20000850:	00c12083          	lw	ra,12(sp)
20000854:	00812403          	lw	s0,8(sp)
20000858:	01010113          	addi	sp,sp,16
2000085c:	00008067          	ret
