
softwares/plic_test/output/plic_test.merl:     file format elf32-littleriscv


Disassembly of section .init:

00000000 <_start>:
   0:	10000197          	auipc	gp,0x10000
   4:	00018193          	mv	gp,gp
   8:	10001117          	auipc	sp,0x10001
   c:	ff810113          	addi	sp,sp,-8 # 10001000 <__stack_top>
  10:	00010433          	add	s0,sp,zero
  14:	21d0006f          	j	a30 <main>

Disassembly of section .text:

00000018 <_stext>:
  18:	f8010113          	addi	sp,sp,-128
  1c:	00000013          	nop
  20:	00112223          	sw	ra,4(sp)
  24:	00212423          	sw	sp,8(sp)
  28:	00312623          	sw	gp,12(sp)
  2c:	00412823          	sw	tp,16(sp)
  30:	00512a23          	sw	t0,20(sp)
  34:	00612c23          	sw	t1,24(sp)
  38:	00712e23          	sw	t2,28(sp)
  3c:	02812023          	sw	s0,32(sp)
  40:	02912223          	sw	s1,36(sp)
  44:	02a12423          	sw	a0,40(sp)
  48:	02b12623          	sw	a1,44(sp)
  4c:	02c12823          	sw	a2,48(sp)
  50:	02d12a23          	sw	a3,52(sp)
  54:	02e12c23          	sw	a4,56(sp)
  58:	02f12e23          	sw	a5,60(sp)
  5c:	05012023          	sw	a6,64(sp)
  60:	05112223          	sw	a7,68(sp)
  64:	05212423          	sw	s2,72(sp)
  68:	05312623          	sw	s3,76(sp)
  6c:	05412823          	sw	s4,80(sp)
  70:	05512a23          	sw	s5,84(sp)
  74:	05612c23          	sw	s6,88(sp)
  78:	05712e23          	sw	s7,92(sp)
  7c:	07812023          	sw	s8,96(sp)
  80:	07912223          	sw	s9,100(sp)
  84:	07a12423          	sw	s10,104(sp)
  88:	07b12623          	sw	s11,108(sp)
  8c:	07c12823          	sw	t3,112(sp)
  90:	07d12a23          	sw	t4,116(sp)
  94:	07e12c23          	sw	t5,120(sp)
  98:	07f12e23          	sw	t6,124(sp)
  9c:	34202573          	csrr	a0,mcause
  a0:	341025f3          	csrr	a1,mepc
  a4:	00010613          	mv	a2,sp
  a8:	0dd000ef          	jal	ra,984 <handle_trap>
  ac:	34151073          	csrw	mepc,a0
  b0:	00412083          	lw	ra,4(sp)
  b4:	00812103          	lw	sp,8(sp)
  b8:	00c12183          	lw	gp,12(sp)
  bc:	01012203          	lw	tp,16(sp)
  c0:	01412283          	lw	t0,20(sp)
  c4:	01812303          	lw	t1,24(sp)
  c8:	01c12383          	lw	t2,28(sp)
  cc:	02012403          	lw	s0,32(sp)
  d0:	02412483          	lw	s1,36(sp)
  d4:	02812503          	lw	a0,40(sp)
  d8:	02c12583          	lw	a1,44(sp)
  dc:	03012603          	lw	a2,48(sp)
  e0:	03412683          	lw	a3,52(sp)
  e4:	03812703          	lw	a4,56(sp)
  e8:	03c12783          	lw	a5,60(sp)
  ec:	04012803          	lw	a6,64(sp)
  f0:	04412883          	lw	a7,68(sp)
  f4:	04812903          	lw	s2,72(sp)
  f8:	04c12983          	lw	s3,76(sp)
  fc:	05012a03          	lw	s4,80(sp)
 100:	05412a83          	lw	s5,84(sp)
 104:	05812b03          	lw	s6,88(sp)
 108:	05c12b83          	lw	s7,92(sp)
 10c:	06012c03          	lw	s8,96(sp)
 110:	06412c83          	lw	s9,100(sp)
 114:	06812d03          	lw	s10,104(sp)
 118:	06c12d83          	lw	s11,108(sp)
 11c:	07012e03          	lw	t3,112(sp)
 120:	07412e83          	lw	t4,116(sp)
 124:	07812f03          	lw	t5,120(sp)
 128:	07c12f83          	lw	t6,124(sp)
 12c:	08010113          	addi	sp,sp,128
 130:	30200073          	mret
 134:	0000                	unimp
 136:	0000                	unimp

00000138 <index_to_mask>:
 138:	fe010113          	addi	sp,sp,-32
 13c:	00812e23          	sw	s0,28(sp)
 140:	02010413          	addi	s0,sp,32
 144:	fea42623          	sw	a0,-20(s0)
 148:	fec42783          	lw	a5,-20(s0)
 14c:	00100713          	li	a4,1
 150:	00f717b3          	sll	a5,a4,a5
 154:	00078513          	mv	a0,a5
 158:	01c12403          	lw	s0,28(sp)
 15c:	02010113          	addi	sp,sp,32
 160:	00008067          	ret

00000164 <mem_write32>:
 164:	fe010113          	addi	sp,sp,-32
 168:	00812e23          	sw	s0,28(sp)
 16c:	02010413          	addi	s0,sp,32
 170:	fea42623          	sw	a0,-20(s0)
 174:	feb42423          	sw	a1,-24(s0)
 178:	fec42223          	sw	a2,-28(s0)
 17c:	fe842783          	lw	a5,-24(s0)
 180:	ffc7f713          	andi	a4,a5,-4
 184:	fec42783          	lw	a5,-20(s0)
 188:	00f707b3          	add	a5,a4,a5
 18c:	00078713          	mv	a4,a5
 190:	fe442783          	lw	a5,-28(s0)
 194:	00f72023          	sw	a5,0(a4)
 198:	00000013          	nop
 19c:	01c12403          	lw	s0,28(sp)
 1a0:	02010113          	addi	sp,sp,32
 1a4:	00008067          	ret

000001a8 <gpio_masked_bit_write>:
 1a8:	fd010113          	addi	sp,sp,-48
 1ac:	02112623          	sw	ra,44(sp)
 1b0:	02812423          	sw	s0,40(sp)
 1b4:	03010413          	addi	s0,sp,48
 1b8:	fca42e23          	sw	a0,-36(s0)
 1bc:	fcb42c23          	sw	a1,-40(s0)
 1c0:	fcc42a23          	sw	a2,-44(s0)
 1c4:	fcd42823          	sw	a3,-48(s0)
 1c8:	fd442703          	lw	a4,-44(s0)
 1cc:	000107b7          	lui	a5,0x10
 1d0:	fff78793          	addi	a5,a5,-1 # ffff <_etext+0xf557>
 1d4:	00f777b3          	and	a5,a4,a5
 1d8:	fef42623          	sw	a5,-20(s0)
 1dc:	fd442703          	lw	a4,-44(s0)
 1e0:	ffff07b7          	lui	a5,0xffff0
 1e4:	00f777b3          	and	a5,a4,a5
 1e8:	fef42423          	sw	a5,-24(s0)
 1ec:	fec42783          	lw	a5,-20(s0)
 1f0:	02078863          	beqz	a5,220 <gpio_masked_bit_write+0x78>
 1f4:	fec42783          	lw	a5,-20(s0)
 1f8:	01079713          	slli	a4,a5,0x10
 1fc:	fd042683          	lw	a3,-48(s0)
 200:	000107b7          	lui	a5,0x10
 204:	fff78793          	addi	a5,a5,-1 # ffff <_etext+0xf557>
 208:	00f6f7b3          	and	a5,a3,a5
 20c:	00f767b3          	or	a5,a4,a5
 210:	00078613          	mv	a2,a5
 214:	fdc42583          	lw	a1,-36(s0)
 218:	400c0537          	lui	a0,0x400c0
 21c:	f49ff0ef          	jal	ra,164 <mem_write32>
 220:	fe842783          	lw	a5,-24(s0)
 224:	02078263          	beqz	a5,248 <gpio_masked_bit_write+0xa0>
 228:	fd042783          	lw	a5,-48(s0)
 22c:	0107d713          	srli	a4,a5,0x10
 230:	fe842783          	lw	a5,-24(s0)
 234:	00f767b3          	or	a5,a4,a5
 238:	00078613          	mv	a2,a5
 23c:	fd842583          	lw	a1,-40(s0)
 240:	400c0537          	lui	a0,0x400c0
 244:	f21ff0ef          	jal	ra,164 <mem_write32>
 248:	00000013          	nop
 24c:	02c12083          	lw	ra,44(sp)
 250:	02812403          	lw	s0,40(sp)
 254:	03010113          	addi	sp,sp,48
 258:	00008067          	ret

0000025c <gpio_masked_write>:
 25c:	fe010113          	addi	sp,sp,-32
 260:	00112e23          	sw	ra,28(sp)
 264:	00812c23          	sw	s0,24(sp)
 268:	02010413          	addi	s0,sp,32
 26c:	fea42623          	sw	a0,-20(s0)
 270:	feb42423          	sw	a1,-24(s0)
 274:	fe842783          	lw	a5,-24(s0)
 278:	00078693          	mv	a3,a5
 27c:	000107b7          	lui	a5,0x10
 280:	fff78613          	addi	a2,a5,-1 # ffff <_etext+0xf557>
 284:	01800593          	li	a1,24
 288:	01400513          	li	a0,20
 28c:	f1dff0ef          	jal	ra,1a8 <gpio_masked_bit_write>
 290:	00000013          	nop
 294:	01c12083          	lw	ra,28(sp)
 298:	01812403          	lw	s0,24(sp)
 29c:	02010113          	addi	sp,sp,32
 2a0:	00008067          	ret

000002a4 <read_word>:
 2a4:	fe010113          	addi	sp,sp,-32
 2a8:	00812e23          	sw	s0,28(sp)
 2ac:	02010413          	addi	s0,sp,32
 2b0:	fea42623          	sw	a0,-20(s0)
 2b4:	fec42783          	lw	a5,-20(s0)
 2b8:	0007a783          	lw	a5,0(a5)
 2bc:	00078513          	mv	a0,a5
 2c0:	01c12403          	lw	s0,28(sp)
 2c4:	02010113          	addi	sp,sp,32
 2c8:	00008067          	ret

000002cc <mem_read32>:
 2cc:	fe010113          	addi	sp,sp,-32
 2d0:	00812e23          	sw	s0,28(sp)
 2d4:	02010413          	addi	s0,sp,32
 2d8:	fea42623          	sw	a0,-20(s0)
 2dc:	feb42423          	sw	a1,-24(s0)
 2e0:	fe842783          	lw	a5,-24(s0)
 2e4:	ffc7f713          	andi	a4,a5,-4
 2e8:	fec42783          	lw	a5,-20(s0)
 2ec:	00f707b3          	add	a5,a4,a5
 2f0:	0007a783          	lw	a5,0(a5)
 2f4:	00078513          	mv	a0,a5
 2f8:	01c12403          	lw	s0,28(sp)
 2fc:	02010113          	addi	sp,sp,32
 300:	00008067          	ret

00000304 <bitfield_bit32_to_field32>:
 304:	fd010113          	addi	sp,sp,-48
 308:	02812623          	sw	s0,44(sp)
 30c:	03010413          	addi	s0,sp,48
 310:	fca42e23          	sw	a0,-36(s0)
 314:	00100793          	li	a5,1
 318:	fef42423          	sw	a5,-24(s0)
 31c:	fdc42783          	lw	a5,-36(s0)
 320:	fef42623          	sw	a5,-20(s0)
 324:	fe842703          	lw	a4,-24(s0)
 328:	fec42783          	lw	a5,-20(s0)
 32c:	00070613          	mv	a2,a4
 330:	00078693          	mv	a3,a5
 334:	00060713          	mv	a4,a2
 338:	00068793          	mv	a5,a3
 33c:	00070513          	mv	a0,a4
 340:	00078593          	mv	a1,a5
 344:	02c12403          	lw	s0,44(sp)
 348:	03010113          	addi	sp,sp,48
 34c:	00008067          	ret

00000350 <bitfield_field32_write>:
 350:	fe010113          	addi	sp,sp,-32
 354:	00812e23          	sw	s0,28(sp)
 358:	02010413          	addi	s0,sp,32
 35c:	fea42623          	sw	a0,-20(s0)
 360:	feb42223          	sw	a1,-28(s0)
 364:	fec42423          	sw	a2,-24(s0)
 368:	fed42023          	sw	a3,-32(s0)
 36c:	fe442703          	lw	a4,-28(s0)
 370:	fe842783          	lw	a5,-24(s0)
 374:	00f717b3          	sll	a5,a4,a5
 378:	fff7c793          	not	a5,a5
 37c:	fec42703          	lw	a4,-20(s0)
 380:	00f777b3          	and	a5,a4,a5
 384:	fef42623          	sw	a5,-20(s0)
 388:	fe442703          	lw	a4,-28(s0)
 38c:	fe042783          	lw	a5,-32(s0)
 390:	00f77733          	and	a4,a4,a5
 394:	fe842783          	lw	a5,-24(s0)
 398:	00f717b3          	sll	a5,a4,a5
 39c:	fec42703          	lw	a4,-20(s0)
 3a0:	00f767b3          	or	a5,a4,a5
 3a4:	fef42623          	sw	a5,-20(s0)
 3a8:	fec42783          	lw	a5,-20(s0)
 3ac:	00078513          	mv	a0,a5
 3b0:	01c12403          	lw	s0,28(sp)
 3b4:	02010113          	addi	sp,sp,32
 3b8:	00008067          	ret

000003bc <bitfield_bit32_write>:
 3bc:	fd010113          	addi	sp,sp,-48
 3c0:	02112623          	sw	ra,44(sp)
 3c4:	02812423          	sw	s0,40(sp)
 3c8:	03010413          	addi	s0,sp,48
 3cc:	fca42e23          	sw	a0,-36(s0)
 3d0:	fcb42c23          	sw	a1,-40(s0)
 3d4:	00060793          	mv	a5,a2
 3d8:	fcf40ba3          	sb	a5,-41(s0)
 3dc:	fd842503          	lw	a0,-40(s0)
 3e0:	f25ff0ef          	jal	ra,304 <bitfield_bit32_to_field32>
 3e4:	00050713          	mv	a4,a0
 3e8:	00058793          	mv	a5,a1
 3ec:	fee42423          	sw	a4,-24(s0)
 3f0:	fef42623          	sw	a5,-20(s0)
 3f4:	fd744783          	lbu	a5,-41(s0)
 3f8:	00078663          	beqz	a5,404 <bitfield_bit32_write+0x48>
 3fc:	00100793          	li	a5,1
 400:	0080006f          	j	408 <bitfield_bit32_write+0x4c>
 404:	00000793          	li	a5,0
 408:	00078693          	mv	a3,a5
 40c:	fe842583          	lw	a1,-24(s0)
 410:	fec42603          	lw	a2,-20(s0)
 414:	fdc42503          	lw	a0,-36(s0)
 418:	f39ff0ef          	jal	ra,350 <bitfield_field32_write>
 41c:	00050793          	mv	a5,a0
 420:	00078513          	mv	a0,a5
 424:	02c12083          	lw	ra,44(sp)
 428:	02812403          	lw	s0,40(sp)
 42c:	03010113          	addi	sp,sp,48
 430:	00008067          	ret

00000434 <plic_priority_reg_offset>:
 434:	fd010113          	addi	sp,sp,-48
 438:	02812623          	sw	s0,44(sp)
 43c:	03010413          	addi	s0,sp,48
 440:	fca42e23          	sw	a0,-36(s0)
 444:	fdc42783          	lw	a5,-36(s0)
 448:	00279793          	slli	a5,a5,0x2
 44c:	fef42623          	sw	a5,-20(s0)
 450:	fec42783          	lw	a5,-20(s0)
 454:	00878793          	addi	a5,a5,8
 458:	00078513          	mv	a0,a5
 45c:	02c12403          	lw	s0,44(sp)
 460:	03010113          	addi	sp,sp,48
 464:	00008067          	ret

00000468 <interrupt_complete>:
 468:	fd010113          	addi	sp,sp,-48
 46c:	02812623          	sw	s0,44(sp)
 470:	03010413          	addi	s0,sp,48
 474:	fca42e23          	sw	a0,-36(s0)
 478:	400507b7          	lui	a5,0x40050
 47c:	10878793          	addi	a5,a5,264 # 40050108 <__stack_top+0x3004f108>
 480:	fef42623          	sw	a5,-20(s0)
 484:	fec42783          	lw	a5,-20(s0)
 488:	fdc42703          	lw	a4,-36(s0)
 48c:	00e7a023          	sw	a4,0(a5)
 490:	07c18713          	addi	a4,gp,124 # 1000007c <hart0_interrupt_matrix>
 494:	fdc42783          	lw	a5,-36(s0)
 498:	00479793          	slli	a5,a5,0x4
 49c:	00f707b3          	add	a5,a4,a5
 4a0:	00200713          	li	a4,2
 4a4:	00e7a423          	sw	a4,8(a5)
 4a8:	07c18713          	addi	a4,gp,124 # 1000007c <hart0_interrupt_matrix>
 4ac:	fdc42783          	lw	a5,-36(s0)
 4b0:	00479793          	slli	a5,a5,0x4
 4b4:	00f707b3          	add	a5,a4,a5
 4b8:	00c7a783          	lw	a5,12(a5)
 4bc:	00178713          	addi	a4,a5,1
 4c0:	07c18693          	addi	a3,gp,124 # 1000007c <hart0_interrupt_matrix>
 4c4:	fdc42783          	lw	a5,-36(s0)
 4c8:	00479793          	slli	a5,a5,0x4
 4cc:	00f687b3          	add	a5,a3,a5
 4d0:	00e7a623          	sw	a4,12(a5)
 4d4:	00000013          	nop
 4d8:	02c12403          	lw	s0,44(sp)
 4dc:	03010113          	addi	sp,sp,48
 4e0:	00008067          	ret

000004e4 <interrupt_claim_request>:
 4e4:	fe010113          	addi	sp,sp,-32
 4e8:	00812e23          	sw	s0,28(sp)
 4ec:	02010413          	addi	s0,sp,32
 4f0:	fe042623          	sw	zero,-20(s0)
 4f4:	400507b7          	lui	a5,0x40050
 4f8:	10878793          	addi	a5,a5,264 # 40050108 <__stack_top+0x3004f108>
 4fc:	fef42623          	sw	a5,-20(s0)
 500:	fec42783          	lw	a5,-20(s0)
 504:	0007a783          	lw	a5,0(a5)
 508:	fef42423          	sw	a5,-24(s0)
 50c:	fe842783          	lw	a5,-24(s0)
 510:	00078513          	mv	a0,a5
 514:	01c12403          	lw	s0,28(sp)
 518:	02010113          	addi	sp,sp,32
 51c:	00008067          	ret

00000520 <mach_plic_handler>:
 520:	fd010113          	addi	sp,sp,-48
 524:	02112623          	sw	ra,44(sp)
 528:	02812423          	sw	s0,40(sp)
 52c:	03010413          	addi	s0,sp,48
 530:	fca42e23          	sw	a0,-36(s0)
 534:	fcb42c23          	sw	a1,-40(s0)
 538:	fadff0ef          	jal	ra,4e4 <interrupt_claim_request>
 53c:	fea42623          	sw	a0,-20(s0)
 540:	07c18713          	addi	a4,gp,124 # 1000007c <hart0_interrupt_matrix>
 544:	fec42783          	lw	a5,-20(s0)
 548:	00479793          	slli	a5,a5,0x4
 54c:	00f707b3          	add	a5,a4,a5
 550:	00100713          	li	a4,1
 554:	00e7a423          	sw	a4,8(a5)
 558:	00018713          	mv	a4,gp
 55c:	fec42783          	lw	a5,-20(s0)
 560:	00279793          	slli	a5,a5,0x2
 564:	00f707b3          	add	a5,a4,a5
 568:	0007a783          	lw	a5,0(a5)
 56c:	fec42503          	lw	a0,-20(s0)
 570:	000780e7          	jalr	a5
 574:	fec42503          	lw	a0,-20(s0)
 578:	ef1ff0ef          	jal	ra,468 <interrupt_complete>
 57c:	00000013          	nop
 580:	02c12083          	lw	ra,44(sp)
 584:	02812403          	lw	s0,40(sp)
 588:	03010113          	addi	sp,sp,48
 58c:	00008067          	ret

00000590 <interrupt_enable>:
 590:	fd010113          	addi	sp,sp,-48
 594:	02812623          	sw	s0,44(sp)
 598:	03010413          	addi	s0,sp,48
 59c:	fca42e23          	sw	a0,-36(s0)
 5a0:	fe0407a3          	sb	zero,-17(s0)
 5a4:	400507b7          	lui	a5,0x40050
 5a8:	10078793          	addi	a5,a5,256 # 40050100 <__stack_top+0x3004f100>
 5ac:	fef42423          	sw	a5,-24(s0)
 5b0:	fdc42783          	lw	a5,-36(s0)
 5b4:	00100713          	li	a4,1
 5b8:	00f717b3          	sll	a5,a4,a5
 5bc:	0ff7f713          	andi	a4,a5,255
 5c0:	fe842783          	lw	a5,-24(s0)
 5c4:	00e78023          	sb	a4,0(a5)
 5c8:	00000013          	nop
 5cc:	02c12403          	lw	s0,44(sp)
 5d0:	03010113          	addi	sp,sp,48
 5d4:	00008067          	ret

000005d8 <interrupt_disable>:
 5d8:	fd010113          	addi	sp,sp,-48
 5dc:	02812623          	sw	s0,44(sp)
 5e0:	03010413          	addi	s0,sp,48
 5e4:	fca42e23          	sw	a0,-36(s0)
 5e8:	fe042623          	sw	zero,-20(s0)
 5ec:	400507b7          	lui	a5,0x40050
 5f0:	10078793          	addi	a5,a5,256 # 40050100 <__stack_top+0x3004f100>
 5f4:	fef42623          	sw	a5,-20(s0)
 5f8:	fec42783          	lw	a5,-20(s0)
 5fc:	00078023          	sb	zero,0(a5)
 600:	07c18713          	addi	a4,gp,124 # 1000007c <hart0_interrupt_matrix>
 604:	fdc42783          	lw	a5,-36(s0)
 608:	00479793          	slli	a5,a5,0x4
 60c:	00f707b3          	add	a5,a4,a5
 610:	0007a423          	sw	zero,8(a5)
 614:	00000013          	nop
 618:	02c12403          	lw	s0,44(sp)
 61c:	03010113          	addi	sp,sp,48
 620:	00008067          	ret

00000624 <plic_set_priority>:
 624:	fd010113          	addi	sp,sp,-48
 628:	02112623          	sw	ra,44(sp)
 62c:	02812423          	sw	s0,40(sp)
 630:	03010413          	addi	s0,sp,48
 634:	fca42e23          	sw	a0,-36(s0)
 638:	fcb42c23          	sw	a1,-40(s0)
 63c:	fdc42783          	lw	a5,-36(s0)
 640:	00078513          	mv	a0,a5
 644:	df1ff0ef          	jal	ra,434 <plic_priority_reg_offset>
 648:	fea42623          	sw	a0,-20(s0)
 64c:	fec42783          	lw	a5,-20(s0)
 650:	fd842603          	lw	a2,-40(s0)
 654:	00078593          	mv	a1,a5
 658:	40050537          	lui	a0,0x40050
 65c:	b09ff0ef          	jal	ra,164 <mem_write32>
 660:	00000013          	nop
 664:	02c12083          	lw	ra,44(sp)
 668:	02812403          	lw	s0,40(sp)
 66c:	03010113          	addi	sp,sp,48
 670:	00008067          	ret

00000674 <plic_set_threshold>:
 674:	fe010113          	addi	sp,sp,-32
 678:	00112e23          	sw	ra,28(sp)
 67c:	00812c23          	sw	s0,24(sp)
 680:	02010413          	addi	s0,sp,32
 684:	fea42623          	sw	a0,-20(s0)
 688:	fec42603          	lw	a2,-20(s0)
 68c:	10400593          	li	a1,260
 690:	40050537          	lui	a0,0x40050
 694:	ad1ff0ef          	jal	ra,164 <mem_write32>
 698:	00000013          	nop
 69c:	01c12083          	lw	ra,28(sp)
 6a0:	01812403          	lw	s0,24(sp)
 6a4:	02010113          	addi	sp,sp,32
 6a8:	00008067          	ret

000006ac <plic_enable_interrupt>:
 6ac:	fe010113          	addi	sp,sp,-32
 6b0:	00112e23          	sw	ra,28(sp)
 6b4:	00812c23          	sw	s0,24(sp)
 6b8:	02010413          	addi	s0,sp,32
 6bc:	fea42623          	sw	a0,-20(s0)
 6c0:	feb42423          	sw	a1,-24(s0)
 6c4:	fe842603          	lw	a2,-24(s0)
 6c8:	10000593          	li	a1,256
 6cc:	40050537          	lui	a0,0x40050
 6d0:	a95ff0ef          	jal	ra,164 <mem_write32>
 6d4:	00000013          	nop
 6d8:	01c12083          	lw	ra,28(sp)
 6dc:	01812403          	lw	s0,24(sp)
 6e0:	02010113          	addi	sp,sp,32
 6e4:	00008067          	ret

000006e8 <plic_set_trigger_type>:
 6e8:	fe010113          	addi	sp,sp,-32
 6ec:	00112e23          	sw	ra,28(sp)
 6f0:	00812c23          	sw	s0,24(sp)
 6f4:	02010413          	addi	s0,sp,32
 6f8:	00050793          	mv	a5,a0
 6fc:	fef407a3          	sb	a5,-17(s0)
 700:	fef44783          	lbu	a5,-17(s0)
 704:	00078613          	mv	a2,a5
 708:	00400593          	li	a1,4
 70c:	40050537          	lui	a0,0x40050
 710:	a55ff0ef          	jal	ra,164 <mem_write32>
 714:	00000013          	nop
 718:	01c12083          	lw	ra,28(sp)
 71c:	01812403          	lw	s0,24(sp)
 720:	02010113          	addi	sp,sp,32
 724:	00008067          	ret

00000728 <plic_offset_from_reg0>:
 728:	fd010113          	addi	sp,sp,-48
 72c:	02812623          	sw	s0,44(sp)
 730:	03010413          	addi	s0,sp,48
 734:	fca42e23          	sw	a0,-36(s0)
 738:	fdc42783          	lw	a5,-36(s0)
 73c:	0057d793          	srli	a5,a5,0x5
 740:	fef407a3          	sb	a5,-17(s0)
 744:	fef44783          	lbu	a5,-17(s0)
 748:	00279793          	slli	a5,a5,0x2
 74c:	00078513          	mv	a0,a5
 750:	02c12403          	lw	s0,44(sp)
 754:	03010113          	addi	sp,sp,48
 758:	00008067          	ret

0000075c <plic_irq_bit_index>:
 75c:	fe010113          	addi	sp,sp,-32
 760:	00812e23          	sw	s0,28(sp)
 764:	02010413          	addi	s0,sp,32
 768:	fea42623          	sw	a0,-20(s0)
 76c:	fec42783          	lw	a5,-20(s0)
 770:	0ff7f793          	andi	a5,a5,255
 774:	01f7f793          	andi	a5,a5,31
 778:	0ff7f793          	andi	a5,a5,255
 77c:	00078513          	mv	a0,a5
 780:	01c12403          	lw	s0,28(sp)
 784:	02010113          	addi	sp,sp,32
 788:	00008067          	ret

0000078c <plic_irq_enable_reg_info>:
 78c:	fb010113          	addi	sp,sp,-80
 790:	04112623          	sw	ra,76(sp)
 794:	04812423          	sw	s0,72(sp)
 798:	04912223          	sw	s1,68(sp)
 79c:	05212023          	sw	s2,64(sp)
 7a0:	03312e23          	sw	s3,60(sp)
 7a4:	05010413          	addi	s0,sp,80
 7a8:	faa42e23          	sw	a0,-68(s0)
 7ac:	fbc42503          	lw	a0,-68(s0)
 7b0:	f79ff0ef          	jal	ra,728 <plic_offset_from_reg0>
 7b4:	fca42e23          	sw	a0,-36(s0)
 7b8:	fdc42783          	lw	a5,-36(s0)
 7bc:	10078493          	addi	s1,a5,256
 7c0:	fbc42503          	lw	a0,-68(s0)
 7c4:	f99ff0ef          	jal	ra,75c <plic_irq_bit_index>
 7c8:	00050793          	mv	a5,a0
 7cc:	fc942a23          	sw	s1,-44(s0)
 7d0:	fcf42c23          	sw	a5,-40(s0)
 7d4:	fd442703          	lw	a4,-44(s0)
 7d8:	fd842783          	lw	a5,-40(s0)
 7dc:	00070913          	mv	s2,a4
 7e0:	00078993          	mv	s3,a5
 7e4:	00090713          	mv	a4,s2
 7e8:	00098793          	mv	a5,s3
 7ec:	00070513          	mv	a0,a4
 7f0:	00078593          	mv	a1,a5
 7f4:	04c12083          	lw	ra,76(sp)
 7f8:	04812403          	lw	s0,72(sp)
 7fc:	04412483          	lw	s1,68(sp)
 800:	04012903          	lw	s2,64(sp)
 804:	03c12983          	lw	s3,60(sp)
 808:	05010113          	addi	sp,sp,80
 80c:	00008067          	ret

00000810 <plic_irq_set_enabled>:
 810:	fd010113          	addi	sp,sp,-48
 814:	02112623          	sw	ra,44(sp)
 818:	02812423          	sw	s0,40(sp)
 81c:	03010413          	addi	s0,sp,48
 820:	fca42e23          	sw	a0,-36(s0)
 824:	00058793          	mv	a5,a1
 828:	fcf40da3          	sb	a5,-37(s0)
 82c:	fdc42503          	lw	a0,-36(s0)
 830:	f5dff0ef          	jal	ra,78c <plic_irq_enable_reg_info>
 834:	00050713          	mv	a4,a0
 838:	00058793          	mv	a5,a1
 83c:	fee42223          	sw	a4,-28(s0)
 840:	fef42423          	sw	a5,-24(s0)
 844:	fdc42783          	lw	a5,-36(s0)
 848:	0ff7f793          	andi	a5,a5,255
 84c:	01f7f793          	andi	a5,a5,31
 850:	fef407a3          	sb	a5,-17(s0)
 854:	fdb44783          	lbu	a5,-37(s0)
 858:	00078613          	mv	a2,a5
 85c:	10000593          	li	a1,256
 860:	40050537          	lui	a0,0x40050
 864:	901ff0ef          	jal	ra,164 <mem_write32>
 868:	00000013          	nop
 86c:	02c12083          	lw	ra,44(sp)
 870:	02812403          	lw	s0,40(sp)
 874:	03010113          	addi	sp,sp,48
 878:	00008067          	ret

0000087c <isr_default>:
 87c:	fe010113          	addi	sp,sp,-32
 880:	00812e23          	sw	s0,28(sp)
 884:	02010413          	addi	s0,sp,32
 888:	fea42623          	sw	a0,-20(s0)
 88c:	00000013          	nop
 890:	01c12403          	lw	s0,28(sp)
 894:	02010113          	addi	sp,sp,32
 898:	00008067          	ret

0000089c <configure_interrupt>:
 89c:	fe010113          	addi	sp,sp,-32
 8a0:	00112e23          	sw	ra,28(sp)
 8a4:	00812c23          	sw	s0,24(sp)
 8a8:	02010413          	addi	s0,sp,32
 8ac:	fea42623          	sw	a0,-20(s0)
 8b0:	fec42503          	lw	a0,-20(s0)
 8b4:	cddff0ef          	jal	ra,590 <interrupt_enable>
 8b8:	00000013          	nop
 8bc:	01c12083          	lw	ra,28(sp)
 8c0:	01812403          	lw	s0,24(sp)
 8c4:	02010113          	addi	sp,sp,32
 8c8:	00008067          	ret

000008cc <trap_init>:
 8cc:	ff010113          	addi	sp,sp,-16
 8d0:	00812623          	sw	s0,12(sp)
 8d4:	01010413          	addi	s0,sp,16
 8d8:	27418793          	addi	a5,gp,628 # 10000274 <mcause_interrupt_table>
 8dc:	00000717          	auipc	a4,0x0
 8e0:	c4470713          	addi	a4,a4,-956 # 520 <mach_plic_handler>
 8e4:	00e7a023          	sw	a4,0(a5)
 8e8:	26c18793          	addi	a5,gp,620 # 1000026c <mcause_trap_table>
 8ec:	00000717          	auipc	a4,0x0
 8f0:	08070713          	addi	a4,a4,128 # 96c <default_handler>
 8f4:	00e7a023          	sw	a4,0(a5)
 8f8:	00000013          	nop
 8fc:	00c12403          	lw	s0,12(sp)
 900:	01010113          	addi	sp,sp,16
 904:	00008067          	ret

00000908 <init>:
 908:	ff010113          	addi	sp,sp,-16
 90c:	00112623          	sw	ra,12(sp)
 910:	00812423          	sw	s0,8(sp)
 914:	01010413          	addi	s0,sp,16
 918:	fb5ff0ef          	jal	ra,8cc <trap_init>
 91c:	114000ef          	jal	ra,a30 <main>
 920:	00000013          	nop
 924:	00c12083          	lw	ra,12(sp)
 928:	00812403          	lw	s0,8(sp)
 92c:	01010113          	addi	sp,sp,16
 930:	00008067          	ret

00000934 <extract_ie_code>:
 934:	fd010113          	addi	sp,sp,-48
 938:	02812623          	sw	s0,44(sp)
 93c:	03010413          	addi	s0,sp,48
 940:	fca42e23          	sw	a0,-36(s0)
 944:	fdc42703          	lw	a4,-36(s0)
 948:	800007b7          	lui	a5,0x80000
 94c:	fff7c793          	not	a5,a5
 950:	00f777b3          	and	a5,a4,a5
 954:	fef42623          	sw	a5,-20(s0)
 958:	fec42783          	lw	a5,-20(s0)
 95c:	00078513          	mv	a0,a5
 960:	02c12403          	lw	s0,44(sp)
 964:	03010113          	addi	sp,sp,48
 968:	00008067          	ret

0000096c <default_handler>:
 96c:	fe010113          	addi	sp,sp,-32
 970:	00812e23          	sw	s0,28(sp)
 974:	02010413          	addi	s0,sp,32
 978:	fea42623          	sw	a0,-20(s0)
 97c:	feb42423          	sw	a1,-24(s0)
 980:	0000006f          	j	980 <default_handler+0x14>

00000984 <handle_trap>:
 984:	fd010113          	addi	sp,sp,-48
 988:	02112623          	sw	ra,44(sp)
 98c:	02812423          	sw	s0,40(sp)
 990:	03010413          	addi	s0,sp,48
 994:	fca42e23          	sw	a0,-36(s0)
 998:	fcb42c23          	sw	a1,-40(s0)
 99c:	fe042623          	sw	zero,-20(s0)
 9a0:	fe042423          	sw	zero,-24(s0)
 9a4:	01f00793          	li	a5,31
 9a8:	fef42423          	sw	a5,-24(s0)
 9ac:	fe842783          	lw	a5,-24(s0)
 9b0:	00100713          	li	a4,1
 9b4:	00f717b3          	sll	a5,a4,a5
 9b8:	00078713          	mv	a4,a5
 9bc:	fdc42783          	lw	a5,-36(s0)
 9c0:	00f777b3          	and	a5,a4,a5
 9c4:	02078a63          	beqz	a5,9f8 <handle_trap+0x74>
 9c8:	fdc42503          	lw	a0,-36(s0)
 9cc:	f69ff0ef          	jal	ra,934 <extract_ie_code>
 9d0:	fea42623          	sw	a0,-20(s0)
 9d4:	27418713          	addi	a4,gp,628 # 10000274 <mcause_interrupt_table>
 9d8:	fec42783          	lw	a5,-20(s0)
 9dc:	00279793          	slli	a5,a5,0x2
 9e0:	00f707b3          	add	a5,a4,a5
 9e4:	0007a783          	lw	a5,0(a5) # 80000000 <__stack_top+0x6ffff000>
 9e8:	fd842583          	lw	a1,-40(s0)
 9ec:	fdc42503          	lw	a0,-36(s0)
 9f0:	000780e7          	jalr	a5
 9f4:	0240006f          	j	a18 <handle_trap+0x94>
 9f8:	26c18713          	addi	a4,gp,620 # 1000026c <mcause_trap_table>
 9fc:	fdc42783          	lw	a5,-36(s0)
 a00:	00279793          	slli	a5,a5,0x2
 a04:	00f707b3          	add	a5,a4,a5
 a08:	0007a783          	lw	a5,0(a5)
 a0c:	fd842583          	lw	a1,-40(s0)
 a10:	fdc42503          	lw	a0,-36(s0)
 a14:	000780e7          	jalr	a5
 a18:	fd842783          	lw	a5,-40(s0)
 a1c:	00078513          	mv	a0,a5
 a20:	02c12083          	lw	ra,44(sp)
 a24:	02812403          	lw	s0,40(sp)
 a28:	03010113          	addi	sp,sp,48
 a2c:	00008067          	ret

00000a30 <main>:
 a30:	fe010113          	addi	sp,sp,-32
 a34:	00112e23          	sw	ra,28(sp)
 a38:	00812c23          	sw	s0,24(sp)
 a3c:	02010413          	addi	s0,sp,32
 a40:	400c07b7          	lui	a5,0x400c0
 a44:	00478793          	addi	a5,a5,4 # 400c0004 <__stack_top+0x300bf004>
 a48:	fef42623          	sw	a5,-20(s0)
 a4c:	fec42783          	lw	a5,-20(s0)
 a50:	00800713          	li	a4,8
 a54:	00e7a023          	sw	a4,0(a5)
 a58:	400c07b7          	lui	a5,0x400c0
 a5c:	03078793          	addi	a5,a5,48 # 400c0030 <__stack_top+0x300bf030>
 a60:	fef42423          	sw	a5,-24(s0)
 a64:	fe842783          	lw	a5,-24(s0)
 a68:	00800713          	li	a4,8
 a6c:	00e7a023          	sw	a4,0(a5)
 a70:	00200513          	li	a0,2
 a74:	c01ff0ef          	jal	ra,674 <plic_set_threshold>
 a78:	00300593          	li	a1,3
 a7c:	00300513          	li	a0,3
 a80:	ba5ff0ef          	jal	ra,624 <plic_set_priority>
 a84:	00800593          	li	a1,8
 a88:	00300513          	li	a0,3
 a8c:	c21ff0ef          	jal	ra,6ac <plic_enable_interrupt>
 a90:	00000793          	li	a5,0
 a94:	00078513          	mv	a0,a5
 a98:	01c12083          	lw	ra,28(sp)
 a9c:	01812403          	lw	s0,24(sp)
 aa0:	02010113          	addi	sp,sp,32
 aa4:	00008067          	ret

Disassembly of section .eh_frame:

00000aa8 <__global_pointer$-0xffff558>:
 aa8:	0014                	0x14
 aaa:	0000                	unimp
 aac:	0000                	unimp
 aae:	0000                	unimp
 ab0:	00527a03          	0x527a03
 ab4:	7c01                	lui	s8,0xfffe0
 ab6:	0101                	addi	sp,sp,0
 ab8:	07020d1b          	0x7020d1b
 abc:	0001                	nop
 abe:	0000                	unimp
 ac0:	0010                	0x10
 ac2:	0000                	unimp
 ac4:	001c                	0x1c
 ac6:	0000                	unimp
 ac8:	f538                	fsw	fa4,104(a0)
 aca:	ffff                	0xffff
 acc:	0018                	0x18
 ace:	0000                	unimp
 ad0:	0000                	unimp
 ad2:	0000                	unimp

Disassembly of section .bss:

10000000 <isr_table>:
10000000:	0000                	unimp
10000002:	0000                	unimp
10000004:	0000                	unimp
10000006:	0000                	unimp
10000008:	0000                	unimp
1000000a:	0000                	unimp
1000000c:	0000                	unimp
1000000e:	0000                	unimp
10000010:	0000                	unimp
10000012:	0000                	unimp
10000014:	0000                	unimp
10000016:	0000                	unimp
10000018:	0000                	unimp
1000001a:	0000                	unimp
1000001c:	0000                	unimp
1000001e:	0000                	unimp
10000020:	0000                	unimp
10000022:	0000                	unimp
10000024:	0000                	unimp
10000026:	0000                	unimp
10000028:	0000                	unimp
1000002a:	0000                	unimp
1000002c:	0000                	unimp
1000002e:	0000                	unimp
10000030:	0000                	unimp
10000032:	0000                	unimp
10000034:	0000                	unimp
10000036:	0000                	unimp
10000038:	0000                	unimp
1000003a:	0000                	unimp
1000003c:	0000                	unimp
1000003e:	0000                	unimp
10000040:	0000                	unimp
10000042:	0000                	unimp
10000044:	0000                	unimp
10000046:	0000                	unimp
10000048:	0000                	unimp
1000004a:	0000                	unimp
1000004c:	0000                	unimp
1000004e:	0000                	unimp
10000050:	0000                	unimp
10000052:	0000                	unimp
10000054:	0000                	unimp
10000056:	0000                	unimp
10000058:	0000                	unimp
1000005a:	0000                	unimp
1000005c:	0000                	unimp
1000005e:	0000                	unimp
10000060:	0000                	unimp
10000062:	0000                	unimp
10000064:	0000                	unimp
10000066:	0000                	unimp
10000068:	0000                	unimp
1000006a:	0000                	unimp
1000006c:	0000                	unimp
1000006e:	0000                	unimp
10000070:	0000                	unimp
10000072:	0000                	unimp
10000074:	0000                	unimp
10000076:	0000                	unimp
10000078:	0000                	unimp
1000007a:	0000                	unimp

1000007c <hart0_interrupt_matrix>:
1000007c:	0000                	unimp
1000007e:	0000                	unimp
10000080:	0000                	unimp
10000082:	0000                	unimp
10000084:	0000                	unimp
10000086:	0000                	unimp
10000088:	0000                	unimp
1000008a:	0000                	unimp
1000008c:	0000                	unimp
1000008e:	0000                	unimp
10000090:	0000                	unimp
10000092:	0000                	unimp
10000094:	0000                	unimp
10000096:	0000                	unimp
10000098:	0000                	unimp
1000009a:	0000                	unimp
1000009c:	0000                	unimp
1000009e:	0000                	unimp
100000a0:	0000                	unimp
100000a2:	0000                	unimp
100000a4:	0000                	unimp
100000a6:	0000                	unimp
100000a8:	0000                	unimp
100000aa:	0000                	unimp
100000ac:	0000                	unimp
100000ae:	0000                	unimp
100000b0:	0000                	unimp
100000b2:	0000                	unimp
100000b4:	0000                	unimp
100000b6:	0000                	unimp
100000b8:	0000                	unimp
100000ba:	0000                	unimp
100000bc:	0000                	unimp
100000be:	0000                	unimp
100000c0:	0000                	unimp
100000c2:	0000                	unimp
100000c4:	0000                	unimp
100000c6:	0000                	unimp
100000c8:	0000                	unimp
100000ca:	0000                	unimp
100000cc:	0000                	unimp
100000ce:	0000                	unimp
100000d0:	0000                	unimp
100000d2:	0000                	unimp
100000d4:	0000                	unimp
100000d6:	0000                	unimp
100000d8:	0000                	unimp
100000da:	0000                	unimp
100000dc:	0000                	unimp
100000de:	0000                	unimp
100000e0:	0000                	unimp
100000e2:	0000                	unimp
100000e4:	0000                	unimp
100000e6:	0000                	unimp
100000e8:	0000                	unimp
100000ea:	0000                	unimp
100000ec:	0000                	unimp
100000ee:	0000                	unimp
100000f0:	0000                	unimp
100000f2:	0000                	unimp
100000f4:	0000                	unimp
100000f6:	0000                	unimp
100000f8:	0000                	unimp
100000fa:	0000                	unimp
100000fc:	0000                	unimp
100000fe:	0000                	unimp
10000100:	0000                	unimp
10000102:	0000                	unimp
10000104:	0000                	unimp
10000106:	0000                	unimp
10000108:	0000                	unimp
1000010a:	0000                	unimp
1000010c:	0000                	unimp
1000010e:	0000                	unimp
10000110:	0000                	unimp
10000112:	0000                	unimp
10000114:	0000                	unimp
10000116:	0000                	unimp
10000118:	0000                	unimp
1000011a:	0000                	unimp
1000011c:	0000                	unimp
1000011e:	0000                	unimp
10000120:	0000                	unimp
10000122:	0000                	unimp
10000124:	0000                	unimp
10000126:	0000                	unimp
10000128:	0000                	unimp
1000012a:	0000                	unimp
1000012c:	0000                	unimp
1000012e:	0000                	unimp
10000130:	0000                	unimp
10000132:	0000                	unimp
10000134:	0000                	unimp
10000136:	0000                	unimp
10000138:	0000                	unimp
1000013a:	0000                	unimp
1000013c:	0000                	unimp
1000013e:	0000                	unimp
10000140:	0000                	unimp
10000142:	0000                	unimp
10000144:	0000                	unimp
10000146:	0000                	unimp
10000148:	0000                	unimp
1000014a:	0000                	unimp
1000014c:	0000                	unimp
1000014e:	0000                	unimp
10000150:	0000                	unimp
10000152:	0000                	unimp
10000154:	0000                	unimp
10000156:	0000                	unimp
10000158:	0000                	unimp
1000015a:	0000                	unimp
1000015c:	0000                	unimp
1000015e:	0000                	unimp
10000160:	0000                	unimp
10000162:	0000                	unimp
10000164:	0000                	unimp
10000166:	0000                	unimp
10000168:	0000                	unimp
1000016a:	0000                	unimp
1000016c:	0000                	unimp
1000016e:	0000                	unimp
10000170:	0000                	unimp
10000172:	0000                	unimp
10000174:	0000                	unimp
10000176:	0000                	unimp
10000178:	0000                	unimp
1000017a:	0000                	unimp
1000017c:	0000                	unimp
1000017e:	0000                	unimp
10000180:	0000                	unimp
10000182:	0000                	unimp
10000184:	0000                	unimp
10000186:	0000                	unimp
10000188:	0000                	unimp
1000018a:	0000                	unimp
1000018c:	0000                	unimp
1000018e:	0000                	unimp
10000190:	0000                	unimp
10000192:	0000                	unimp
10000194:	0000                	unimp
10000196:	0000                	unimp
10000198:	0000                	unimp
1000019a:	0000                	unimp
1000019c:	0000                	unimp
1000019e:	0000                	unimp
100001a0:	0000                	unimp
100001a2:	0000                	unimp
100001a4:	0000                	unimp
100001a6:	0000                	unimp
100001a8:	0000                	unimp
100001aa:	0000                	unimp
100001ac:	0000                	unimp
100001ae:	0000                	unimp
100001b0:	0000                	unimp
100001b2:	0000                	unimp
100001b4:	0000                	unimp
100001b6:	0000                	unimp
100001b8:	0000                	unimp
100001ba:	0000                	unimp
100001bc:	0000                	unimp
100001be:	0000                	unimp
100001c0:	0000                	unimp
100001c2:	0000                	unimp
100001c4:	0000                	unimp
100001c6:	0000                	unimp
100001c8:	0000                	unimp
100001ca:	0000                	unimp
100001cc:	0000                	unimp
100001ce:	0000                	unimp
100001d0:	0000                	unimp
100001d2:	0000                	unimp
100001d4:	0000                	unimp
100001d6:	0000                	unimp
100001d8:	0000                	unimp
100001da:	0000                	unimp
100001dc:	0000                	unimp
100001de:	0000                	unimp
100001e0:	0000                	unimp
100001e2:	0000                	unimp
100001e4:	0000                	unimp
100001e6:	0000                	unimp
100001e8:	0000                	unimp
100001ea:	0000                	unimp
100001ec:	0000                	unimp
100001ee:	0000                	unimp
100001f0:	0000                	unimp
100001f2:	0000                	unimp
100001f4:	0000                	unimp
100001f6:	0000                	unimp
100001f8:	0000                	unimp
100001fa:	0000                	unimp
100001fc:	0000                	unimp
100001fe:	0000                	unimp
10000200:	0000                	unimp
10000202:	0000                	unimp
10000204:	0000                	unimp
10000206:	0000                	unimp
10000208:	0000                	unimp
1000020a:	0000                	unimp
1000020c:	0000                	unimp
1000020e:	0000                	unimp
10000210:	0000                	unimp
10000212:	0000                	unimp
10000214:	0000                	unimp
10000216:	0000                	unimp
10000218:	0000                	unimp
1000021a:	0000                	unimp
1000021c:	0000                	unimp
1000021e:	0000                	unimp
10000220:	0000                	unimp
10000222:	0000                	unimp
10000224:	0000                	unimp
10000226:	0000                	unimp
10000228:	0000                	unimp
1000022a:	0000                	unimp
1000022c:	0000                	unimp
1000022e:	0000                	unimp
10000230:	0000                	unimp
10000232:	0000                	unimp
10000234:	0000                	unimp
10000236:	0000                	unimp
10000238:	0000                	unimp
1000023a:	0000                	unimp
1000023c:	0000                	unimp
1000023e:	0000                	unimp
10000240:	0000                	unimp
10000242:	0000                	unimp
10000244:	0000                	unimp
10000246:	0000                	unimp
10000248:	0000                	unimp
1000024a:	0000                	unimp
1000024c:	0000                	unimp
1000024e:	0000                	unimp
10000250:	0000                	unimp
10000252:	0000                	unimp
10000254:	0000                	unimp
10000256:	0000                	unimp
10000258:	0000                	unimp
1000025a:	0000                	unimp
1000025c:	0000                	unimp
1000025e:	0000                	unimp
10000260:	0000                	unimp
10000262:	0000                	unimp
10000264:	0000                	unimp
10000266:	0000                	unimp
10000268:	0000                	unimp
1000026a:	0000                	unimp

Disassembly of section .sbss:

1000026c <mcause_trap_table>:
1000026c:	0000                	unimp
1000026e:	0000                	unimp
10000270:	0000                	unimp
10000272:	0000                	unimp

10000274 <mcause_interrupt_table>:
10000274:	0000                	unimp
10000276:	0000                	unimp
10000278:	0000                	unimp
1000027a:	0000                	unimp

